Component: ARM Compiler 5.06 update 7 (build 960) Tool: armlink [4d3601]

==============================================================================

Section Cross References

    startup_stm32l475xx.o(RESET) refers to startup_stm32l475xx.o(STACK) for __initial_sp
    startup_stm32l475xx.o(RESET) refers to startup_stm32l475xx.o(.text) for Reset_Handler
    startup_stm32l475xx.o(RESET) refers to stm32l4xx_it.o(i.NMI_Handler) for NMI_Handler
    startup_stm32l475xx.o(RESET) refers to context_rvds.o(.text) for HardFault_Handler
    startup_stm32l475xx.o(RESET) refers to stm32l4xx_it.o(i.MemManage_Handler) for MemManage_Handler
    startup_stm32l475xx.o(RESET) refers to stm32l4xx_it.o(i.BusFault_Handler) for BusFault_Handler
    startup_stm32l475xx.o(RESET) refers to stm32l4xx_it.o(i.UsageFault_Handler) for UsageFault_Handler
    startup_stm32l475xx.o(RESET) refers to stm32l4xx_it.o(i.SVC_Handler) for SVC_Handler
    startup_stm32l475xx.o(RESET) refers to stm32l4xx_it.o(i.DebugMon_Handler) for DebugMon_Handler
    startup_stm32l475xx.o(RESET) refers to board.o(i.SysTick_Handler) for SysTick_Handler
    startup_stm32l475xx.o(.text) refers to system_stm32l4xx.o(i.SystemInit) for SystemInit
    startup_stm32l475xx.o(.text) refers to entry.o(.ARM.Collect$$$$00000000) for __main
    main.o(i.fputc) refers to stm32l4xx_hal_uart.o(i.HAL_UART_Transmit) for HAL_UART_Transmit
    main.o(i.fputc) refers to usart.o(.bss) for huart1
    main.o(i.led_thread_entry) refers to kservice.o(i.rt_kprintf) for rt_kprintf
    main.o(i.led_thread_entry) refers to thread.o(i.rt_thread_delay) for rt_thread_delay
    main.o(i.main) refers to thread.o(i.rt_thread_create) for rt_thread_create
    main.o(i.main) refers to thread.o(i.rt_thread_startup) for rt_thread_startup
==============================================================================

Removing Unused input sections from the image.

    Removing startup_stm32l475xx.o(HEAP), (512 bytes).
    Removing main.o(.rev16_text), (4 bytes).
    Removing main.o(.revsh_text), (4 bytes).
    Removing main.o(.rrx_text), (6 bytes).
    Removing main.o(i.fputc), (32 bytes).
    Removing gpio.o(.rev16_text), (4 bytes).
    Removing gpio.o(.revsh_text), (4 bytes).
    Removing gpio.o(.rrx_text), (6 bytes).
    Removing usart.o(.rev16_text), (4 bytes).
    Removing usart.o(.revsh_text), (4 bytes).
    Removing usart.o(.rrx_text), (6 bytes).
    Removing usart.o(i.HAL_UART_MspDeInit), (40 bytes).
    Removing stm32l4xx_it.o(.rev16_text), (4 bytes).
    Removing stm32l4xx_it.o(.revsh_text), (4 bytes).
    Removing stm32l4xx_it.o(.rrx_text), (6 bytes).
    Removing stm32l4xx_it.o(i.HardFault_Handler), (2 bytes).
    Removing stm32l4xx_it.o(i.PendSV_Handler), (2 bytes).
    Removing stm32l4xx_it.o(i.SysTick_Handler), (4 bytes).
==============================================================================

Image Symbol Table

    Local Symbols

    Symbol Name                              Value     Ov Type        Size  Object(Section)

    ../Core/Src/gpio.c                       0x00000000   Number         0  gpio.o ABSOLUTE
    ../Core/Src/main.c                       0x00000000   Number         0  main.o ABSOLUTE
    ../Core/Src/stm32l4xx_hal_msp.c          0x00000000   Number         0  stm32l4xx_hal_msp.o ABSOLUTE
    ../Core/Src/stm32l4xx_it.c               0x00000000   Number         0  stm32l4xx_it.o ABSOLUTE
    ../Core/Src/system_stm32l4xx.c           0x00000000   Number         0  system_stm32l4xx.o ABSOLUTE
    ../Core/Src/usart.c                      0x00000000   Number         0  usart.o ABSOLUTE
    ../Drivers/STM32L4xx_HAL_Driver/Src/stm32l4xx_hal.c 0x00000000   Number         0  stm32l4xx_hal.o ABSOLUTE
    ../Drivers/STM32L4xx_HAL_Driver/Src/stm32l4xx_hal_cortex.c 0x00000000   Number         0  stm32l4xx_hal_cortex.o ABSOLUTE
    ../Drivers/STM32L4xx_HAL_Driver/Src/stm32l4xx_hal_dma.c 0x00000000   Number         0  stm32l4xx_hal_dma.o ABSOLUTE
    ../Drivers/STM32L4xx_HAL_Driver/Src/stm32l4xx_hal_dma_ex.c 0x00000000   Number         0  stm32l4xx_hal_dma_ex.o ABSOLUTE
    ../Drivers/STM32L4xx_HAL_Driver/Src/stm32l4xx_hal_exti.c 0x00000000   Number         0  stm32l4xx_hal_exti.o ABSOLUTE
    ../Drivers/STM32L4xx_HAL_Driver/Src/stm32l4xx_hal_flash.c 0x00000000   Number         0  stm32l4xx_hal_flash.o ABSOLUTE
    ../Drivers/STM32L4xx_HAL_Driver/Src/stm32l4xx_hal_flash_ex.c 0x00000000   Number         0  stm32l4xx_hal_flash_ex.o ABSOLUTE
    ../Drivers/STM32L4xx_HAL_Driver/Src/stm32l4xx_hal_flash_ramfunc.c 0x00000000   Number         0  stm32l4xx_hal_flash_ramfunc.o ABSOLUTE
    ../Drivers/STM32L4xx_HAL_Driver/Src/stm32l4xx_hal_gpio.c 0x00000000   Number         0  stm32l4xx_hal_gpio.o ABSOLUTE
    ../Drivers/STM32L4xx_HAL_Driver/Src/stm32l4xx_hal_i2c.c 0x00000000   Number         0  stm32l4xx_hal_i2c.o ABSOLUTE
    ../Drivers/STM32L4xx_HAL_Driver/Src/stm32l4xx_hal_i2c_ex.c 0x00000000   Number         0  stm32l4xx_hal_i2c_ex.o ABSOLUTE
    ../Drivers/STM32L4xx_HAL_Driver/Src/stm32l4xx_hal_pwr.c 0x00000000   Number         0  stm32l4xx_hal_pwr.o ABSOLUTE
    ../Drivers/STM32L4xx_HAL_Driver/Src/stm32l4xx_hal_pwr_ex.c 0x00000000   Number         0  stm32l4xx_hal_pwr_ex.o ABSOLUTE
    ../Drivers/STM32L4xx_HAL_Driver/Src/stm32l4xx_hal_rcc.c 0x00000000   Number         0  stm32l4xx_hal_rcc.o ABSOLUTE
    ../Drivers/STM32L4xx_HAL_Driver/Src/stm32l4xx_hal_rcc_ex.c 0x00000000   Number         0  stm32l4xx_hal_rcc_ex.o ABSOLUTE
    ../Drivers/STM32L4xx_HAL_Driver/Src/stm32l4xx_hal_tim.c 0x00000000   Number         0  stm32l4xx_hal_tim.o ABSOLUTE
    ../Drivers/STM32L4xx_HAL_Driver/Src/stm32l4xx_hal_tim_ex.c 0x00000000   Number         0  stm32l4xx_hal_tim_ex.o ABSOLUTE
    ../Drivers/STM32L4xx_HAL_Driver/Src/stm32l4xx_hal_uart.c 0x00000000   Number         0  stm32l4xx_hal_uart.o ABSOLUTE
    ../Drivers/STM32L4xx_HAL_Driver/Src/stm32l4xx_hal_uart_ex.c 0x00000000   Number         0  stm32l4xx_hal_uart_ex.o ABSOLUTE
    ../clib/../cmprslib/zerorunl2.c          0x00000000   Number         0  __dczerorl2.o ABSOLUTE
    ../clib/microlib/division.c              0x00000000   Number         0  uldiv.o ABSOLUTE
    ../clib/microlib/init/entry.s            0x00000000   Number         0  entry8b.o ABSOLUTE
    ../clib/microlib/init/entry.s            0x00000000   Number         0  entry.o ABSOLUTE
    ../clib/microlib/init/entry.s            0x00000000   Number         0  entry10a.o ABSOLUTE
    ../clib/microlib/init/entry.s            0x00000000   Number         0  entry2.o ABSOLUTE
    ../clib/microlib/init/entry.s            0x00000000   Number         0  entry5.o ABSOLUTE
    ../clib/microlib/init/entry.s            0x00000000   Number         0  entry12b.o ABSOLUTE
    ../clib/microlib/init/entry.s            0x00000000   Number         0  entry12a.o ABSOLUTE
    ../clib/microlib/init/entry.s            0x00000000   Number         0  entry11b.o ABSOLUTE
    ../clib/microlib/init/entry.s            0x00000000   Number         0  entry7a.o ABSOLUTE
    ../clib/microlib/init/entry.s            0x00000000   Number         0  entry11a.o ABSOLUTE
    ../clib/microlib/init/entry.s            0x00000000   Number         0  entry10b.o ABSOLUTE
    ../clib/microlib/init/entry.s            0x00000000   Number         0  entry7b.o ABSOLUTE
    ../clib/microlib/init/entry.s            0x00000000   Number         0  entry9b.o ABSOLUTE
    ../clib/microlib/init/entry.s            0x00000000   Number         0  entry9a.o ABSOLUTE
    ../clib/microlib/init/entry.s            0x00000000   Number         0  entry8a.o ABSOLUTE
    ../clib/microlib/longlong.c              0x00000000   Number         0  llshl.o ABSOLUTE
    ../clib/microlib/longlong.c              0x00000000   Number         0  llushr.o ABSOLUTE
    ../clib/microlib/string/memset.c         0x00000000   Number         0  memseta.o ABSOLUTE
    ..\Core\Src\gpio.c                       0x00000000   Number         0  gpio.o ABSOLUTE
    ..\Core\Src\main.c                       0x00000000   Number         0  main.o ABSOLUTE
    ..\Core\Src\stm32l4xx_hal_msp.c          0x00000000   Number         0  stm32l4xx_hal_msp.o ABSOLUTE
    ..\Core\Src\stm32l4xx_it.c               0x00000000   Number         0  stm32l4xx_it.o ABSOLUTE
    ..\Core\Src\system_stm32l4xx.c           0x00000000   Number         0  system_stm32l4xx.o ABSOLUTE
    ..\Core\Src\usart.c                      0x00000000   Number         0  usart.o ABSOLUTE
    ..\Drivers\STM32L4xx_HAL_Driver\Src\stm32l4xx_hal.c 0x00000000   Number         0  stm32l4xx_hal.o ABSOLUTE
    ..\Drivers\STM32L4xx_HAL_Driver\Src\stm32l4xx_hal_cortex.c 0x00000000   Number         0  stm32l4xx_hal_cortex.o ABSOLUTE
    ..\Drivers\STM32L4xx_HAL_Driver\Src\stm32l4xx_hal_dma.c 0x00000000   Number         0  stm32l4xx_hal_dma.o ABSOLUTE
    ..\Drivers\STM32L4xx_HAL_Driver\Src\stm32l4xx_hal_dma_ex.c 0x00000000   Number         0  stm32l4xx_hal_dma_ex.o ABSOLUTE
    ..\Drivers\STM32L4xx_HAL_Driver\Src\stm32l4xx_hal_exti.c 0x00000000   Number         0  stm32l4xx_hal_exti.o ABSOLUTE
    ..\Drivers\STM32L4xx_HAL_Driver\Src\stm32l4xx_hal_flash.c 0x00000000   Number         0  stm32l4xx_hal_flash.o ABSOLUTE
    ..\Drivers\STM32L4xx_HAL_Driver\Src\stm32l4xx_hal_flash_ex.c 0x00000000   Number         0  stm32l4xx_hal_flash_ex.o ABSOLUTE
    ..\Drivers\STM32L4xx_HAL_Driver\Src\stm32l4xx_hal_flash_ramfunc.c 0x00000000   Number         0  stm32l4xx_hal_flash_ramfunc.o ABSOLUTE
    ..\Drivers\STM32L4xx_HAL_Driver\Src\stm32l4xx_hal_gpio.c 0x00000000   Number         0  stm32l4xx_hal_gpio.o ABSOLUTE
    ..\Drivers\STM32L4xx_HAL_Driver\Src\stm32l4xx_hal_i2c.c 0x00000000   Number         0  stm32l4xx_hal_i2c.o ABSOLUTE
    ..\Drivers\STM32L4xx_HAL_Driver\Src\stm32l4xx_hal_i2c_ex.c 0x00000000   Number         0  stm32l4xx_hal_i2c_ex.o ABSOLUTE
    ..\Drivers\STM32L4xx_HAL_Driver\Src\stm32l4xx_hal_pwr.c 0x00000000   Number         0  stm32l4xx_hal_pwr.o ABSOLUTE
    ..\Drivers\STM32L4xx_HAL_Driver\Src\stm32l4xx_hal_pwr_ex.c 0x00000000   Number         0  stm32l4xx_hal_pwr_ex.o ABSOLUTE
    ..\Drivers\STM32L4xx_HAL_Driver\Src\stm32l4xx_hal_rcc.c 0x00000000   Number         0  stm32l4xx_hal_rcc.o ABSOLUTE
    ..\Drivers\STM32L4xx_HAL_Driver\Src\stm32l4xx_hal_rcc_ex.c 0x00000000   Number         0  stm32l4xx_hal_rcc_ex.o ABSOLUTE
    ..\Drivers\STM32L4xx_HAL_Driver\Src\stm32l4xx_hal_tim.c 0x00000000   Number         0  stm32l4xx_hal_tim.o ABSOLUTE
    ..\Drivers\STM32L4xx_HAL_Driver\Src\stm32l4xx_hal_tim_ex.c 0x00000000   Number         0  stm32l4xx_hal_tim_ex.o ABSOLUTE
    ..\Drivers\STM32L4xx_HAL_Driver\Src\stm32l4xx_hal_uart.c 0x00000000   Number         0  stm32l4xx_hal_uart.o ABSOLUTE
    ..\Drivers\STM32L4xx_HAL_Driver\Src\stm32l4xx_hal_uart_ex.c 0x00000000   Number         0  stm32l4xx_hal_uart_ex.o ABSOLUTE
    ..\\rt-thread\\board.c                   0x00000000   Number         0  board.o ABSOLUTE
    ..\\rt-thread\\libcpu\\arm\\cortex-m4\\cpuport.c 0x00000000   Number         0  cpuport.o ABSOLUTE
    ..\rt-thread\board.c                     0x00000000   Number         0  board.o ABSOLUTE
    ..\rt-thread\libcpu\arm\cortex-m4\context_rvds.S 0x00000000   Number         0  context_rvds.o ABSOLUTE
    ..\rt-thread\libcpu\arm\cortex-m4\cpuport.c 0x00000000   Number         0  cpuport.o ABSOLUTE
    ..\rt-thread\src\clock.c                 0x00000000   Number         0  clock.o ABSOLUTE
    ..\rt-thread\src\components.c            0x00000000   Number         0  components.o ABSOLUTE
    ..\rt-thread\src\device.c                0x00000000   Number         0  device.o ABSOLUTE
    ..\rt-thread\src\idle.c                  0x00000000   Number         0  idle.o ABSOLUTE
    ..\rt-thread\src\ipc.c                   0x00000000   Number         0  ipc.o ABSOLUTE
    ..\rt-thread\src\irq.c                   0x00000000   Number         0  irq.o ABSOLUTE
    ..\rt-thread\src\kservice.c              0x00000000   Number         0  kservice.o ABSOLUTE
    ..\rt-thread\src\mem.c                   0x00000000   Number         0  mem.o ABSOLUTE
    ..\rt-thread\src\memheap.c               0x00000000   Number         0  memheap.o ABSOLUTE
    ..\rt-thread\src\mempool.c               0x00000000   Number         0  mempool.o ABSOLUTE
    ..\rt-thread\src\object.c                0x00000000   Number         0  object.o ABSOLUTE
    ..\rt-thread\src\scheduler.c             0x00000000   Number         0  scheduler.o ABSOLUTE
    ..\rt-thread\src\signal.c                0x00000000   Number         0  signal.o ABSOLUTE
    ..\rt-thread\src\slab.c                  0x00000000   Number         0  slab.o ABSOLUTE
    ..\rt-thread\src\thread.c                0x00000000   Number         0  thread.o ABSOLUTE
    ..\rt-thread\src\timer.c                 0x00000000   Number         0  timer.o ABSOLUTE
    dc.s                                     0x00000000   Number         0  dc.o ABSOLUTE
    handlers.s                               0x00000000   Number         0  handlers.o ABSOLUTE
    init.s                                   0x00000000   Number         0  init.o ABSOLUTE
    startup_stm32l475xx.s                    0x00000000   Number         0  startup_stm32l475xx.o ABSOLUTE
    RESET                                    0x08000000   Section      392  startup_stm32l475xx.o(RESET)
    .ARM.Collect$$$$00000000                 0x08000188   Section        0  entry.o(.ARM.Collect$$$$00000000)
    .ARM.Collect$$$$00000001                 0x08000188   Section        4  entry2.o(.ARM.Collect$$$$00000001)
    .ARM.Collect$$$$00000004                 0x0800018c   Section        4  entry5.o(.ARM.Collect$$$$00000004)
    .ARM.Collect$$$$00000008                 0x08000190   Section        0  entry7b.o(.ARM.Collect$$$$00000008)
    .ARM.Collect$$$$0000000A                 0x08000190   Section        0  entry8b.o(.ARM.Collect$$$$0000000A)
    .ARM.Collect$$$$0000000B                 0x08000190   Section        8  entry9a.o(.ARM.Collect$$$$0000000B)
    .ARM.Collect$$$$0000000E                 0x08000198   Section        4  entry12b.o(.ARM.Collect$$$$0000000E)
    .ARM.Collect$$$$0000000F                 0x0800019c   Section        0  entry10a.o(.ARM.Collect$$$$0000000F)
    .ARM.Collect$$$$00000011                 0x0800019c   Section        0  entry11a.o(.ARM.Collect$$$$00000011)
    .ARM.Collect$$$$00002712                 0x0800019c   Section        4  entry2.o(.ARM.Collect$$$$00002712)
    __lit__00000000                          0x0800019c   Data           4  entry2.o(.ARM.Collect$$$$00002712)
    .emb_text                                0x080001a0   Section       16  cpuport.o(.emb_text)
    $v0                                      0x080001a0   Number         0  cpuport.o(.emb_text)
    .text                                    0x080001b0   Section       36  startup_stm32l475xx.o(.text)
    $v0                                      0x080001b0   Number         0  startup_stm32l475xx.o(.text)
    .text                                    0x080001d4   Section      316  context_rvds.o(.text)
    $v0                                      0x080001d4   Number         0  context_rvds.o(.text)
    .text                                    0x0800031c   Section        0  uldiv.o(.text)
    .text                                    0x08000384   Section        0  memseta.o(.text)
    .text                                    0x080003a8   Section        0  llshl.o(.text)
    .text                                    0x080003c6   Section        0  llushr.o(.text)
    .text                                    0x080003e8   Section       36  init.o(.text)
    .text                                    0x0800040c   Section        0  __dczerorl2.o(.text)
    i.$Sub$$main                             0x08000462   Section        0  components.o(i.$Sub$$main)
    i.BusFault_Handler                       0x0800046c   Section        0  stm32l4xx_it.o(i.BusFault_Handler)
    i.DebugMon_Handler                       0x0800046e   Section        0  stm32l4xx_it.o(i.DebugMon_Handler)
    i.Error_Handler                          0x08000470   Section        0  main.o(i.Error_Handler)
    i.HAL_GPIO_Init                          0x08000474   Section        0  stm32l4xx_hal_gpio.o(i.HAL_GPIO_Init)
    i.HAL_GPIO_TogglePin                     0x08000692   Section        0  stm32l4xx_hal_gpio.o(i.HAL_GPIO_TogglePin)
    i.HAL_GPIO_WritePin                      0x080006a2   Section        0  stm32l4xx_hal_gpio.o(i.HAL_GPIO_WritePin)
    i.HAL_GetTick                            0x080006ac   Section        0  stm32l4xx_hal.o(i.HAL_GetTick)
    i.HAL_IncTick                            0x080006b8   Section        0  stm32l4xx_hal.o(i.HAL_IncTick)
    i.HAL_Init                               0x080006c8   Section        0  stm32l4xx_hal.o(i.HAL_Init)
    i.HAL_InitTick                           0x080006e8   Section        0  stm32l4xx_hal.o(i.HAL_InitTick)
    i.HAL_MspInit                            0x0800072c   Section        0  stm32l4xx_hal_msp.o(i.HAL_MspInit)
    i.HAL_NVIC_SetPriority                   0x08000758   Section        0  stm32l4xx_hal_cortex.o(i.HAL_NVIC_SetPriority)
    i.HAL_NVIC_SetPriorityGrouping           0x08000798   Section        0  stm32l4xx_hal_cortex.o(i.HAL_NVIC_SetPriorityGrouping)
    i.HAL_PWREx_ControlVoltageScaling        0x080007bc   Section        0  stm32l4xx_hal_pwr_ex.o(i.HAL_PWREx_ControlVoltageScaling)
    i.HAL_PWREx_GetVoltageRange              0x08000824   Section        0  stm32l4xx_hal_pwr_ex.o(i.HAL_PWREx_GetVoltageRange)
    i.HAL_RCCEx_PeriphCLKConfig              0x08000834   Section        0  stm32l4xx_hal_rcc_ex.o(i.HAL_RCCEx_PeriphCLKConfig)
    i.HAL_RCC_ClockConfig                    0x08000be4   Section        0  stm32l4xx_hal_rcc.o(i.HAL_RCC_ClockConfig)
    i.HAL_RCC_GetPCLK1Freq                   0x08000d28   Section        0  stm32l4xx_hal_rcc.o(i.HAL_RCC_GetPCLK1Freq)
    i.HAL_RCC_GetPCLK2Freq                   0x08000d4c   Section        0  stm32l4xx_hal_rcc.o(i.HAL_RCC_GetPCLK2Freq)
    i.HAL_RCC_GetSysClockFreq                0x08000d70   Section        0  stm32l4xx_hal_rcc.o(i.HAL_RCC_GetSysClockFreq)
    i.HAL_RCC_OscConfig                      0x08000e14   Section        0  stm32l4xx_hal_rcc.o(i.HAL_RCC_OscConfig)
    i.HAL_SYSTICK_Config                     0x0800132c   Section        0  stm32l4xx_hal_cortex.o(i.HAL_SYSTICK_Config)
    i.HAL_UART_Init                          0x08001354   Section        0  stm32l4xx_hal_uart.o(i.HAL_UART_Init)
    i.HAL_UART_MspInit                       0x080013bc   Section        0  usart.o(i.HAL_UART_MspInit)
    i.HAL_UART_Transmit                      0x0800143c   Section        0  stm32l4xx_hal_uart.o(i.HAL_UART_Transmit)
    i.MX_GPIO_Init                           0x080014f4   Section        0  gpio.o(i.MX_GPIO_Init)
    i.MX_USART1_UART_Init                    0x08001570   Section        0  usart.o(i.MX_USART1_UART_Init)
    i.MemManage_Handler                      0x080015ac   Section        0  stm32l4xx_it.o(i.MemManage_Handler)
    i.NMI_Handler                            0x080015ae   Section        0  stm32l4xx_it.o(i.NMI_Handler)
    i.RCCEx_PLLSAI1_Config                   0x080015b0   Section        0  stm32l4xx_hal_rcc_ex.o(i.RCCEx_PLLSAI1_Config)
    RCCEx_PLLSAI1_Config                     0x080015b1   Thumb Code   278  stm32l4xx_hal_rcc_ex.o(i.RCCEx_PLLSAI1_Config)
    i.RCCEx_PLLSAI2_Config                   0x080016dc   Section        0  stm32l4xx_hal_rcc_ex.o(i.RCCEx_PLLSAI2_Config)
    RCCEx_PLLSAI2_Config                     0x080016dd   Thumb Code   250  stm32l4xx_hal_rcc_ex.o(i.RCCEx_PLLSAI2_Config)
    i.RCC_SetFlashLatencyFromMSIRange        0x080017e4   Section        0  stm32l4xx_hal_rcc.o(i.RCC_SetFlashLatencyFromMSIRange)
    RCC_SetFlashLatencyFromMSIRange          0x080017e5   Thumb Code   116  stm32l4xx_hal_rcc.o(i.RCC_SetFlashLatencyFromMSIRange)
    i.SVC_Handler                            0x08001860   Section        0  stm32l4xx_it.o(i.SVC_Handler)
    i.SysTick_Handler                        0x08001862   Section        0  board.o(i.SysTick_Handler)
    i.SystemClock_Config                     0x08001878   Section        0  board.o(i.SystemClock_Config)
    i.SystemInit                             0x080018e8   Section        0  system_stm32l4xx.o(i.SystemInit)
    i.UART_AdvFeatureConfig                  0x080018f8   Section        0  stm32l4xx_hal_uart.o(i.UART_AdvFeatureConfig)
    i.UART_CheckIdleState                    0x080019c0   Section        0  stm32l4xx_hal_uart.o(i.UART_CheckIdleState)
    i.UART_SetConfig                         0x08001a1c   Section        0  stm32l4xx_hal_uart.o(i.UART_SetConfig)
    i.UART_WaitOnFlagUntilTimeout            0x08001c64   Section        0  stm32l4xx_hal_uart.o(i.UART_WaitOnFlagUntilTimeout)
    i.UsageFault_Handler                     0x08001d2a   Section        0  stm32l4xx_it.o(i.UsageFault_Handler)
    i.__NVIC_SetPriority                     0x08001d2c   Section        0  stm32l4xx_hal_cortex.o(i.__NVIC_SetPriority)
    __NVIC_SetPriority                       0x08001d2d   Thumb Code    32  stm32l4xx_hal_cortex.o(i.__NVIC_SetPriority)
    i.__scatterload_copy                     0x08001d4c   Section       14  handlers.o(i.__scatterload_copy)
    i.__scatterload_null                     0x08001d5a   Section        2  handlers.o(i.__scatterload_null)
    i.__scatterload_zeroinit                 0x08001d5c   Section       14  handlers.o(i.__scatterload_zeroinit)
    i._heap_lock                             0x08001d6c   Section        0  kservice.o(i._heap_lock)
    _heap_lock                               0x08001d6d   Thumb Code    26  kservice.o(i._heap_lock)
    i._heap_unlock                           0x08001d8c   Section        0  kservice.o(i._heap_unlock)
    _heap_unlock                             0x08001d8d   Thumb Code    36  kservice.o(i._heap_unlock)
    i._ipc_list_suspend                      0x08001dc8   Section        0  ipc.o(i._ipc_list_suspend)
    _ipc_list_suspend                        0x08001dc9   Thumb Code    98  ipc.o(i._ipc_list_suspend)
    i._rt_mutex_take                         0x08001e34   Section        0  ipc.o(i._rt_mutex_take)
    _rt_mutex_take                           0x08001e35   Thumb Code   468  ipc.o(i._rt_mutex_take)
    i._scheduler_get_highest_priority_thread 0x080020bc   Section        0  scheduler.o(i._scheduler_get_highest_priority_thread)
    _scheduler_get_highest_priority_thread   0x080020bd   Thumb Code    28  scheduler.o(i._scheduler_get_highest_priority_thread)
    i._scheduler_stack_check                 0x080020e0   Section        0  scheduler.o(i._scheduler_stack_check)
    _scheduler_stack_check                   0x080020e1   Thumb Code    74  scheduler.o(i._scheduler_stack_check)
    i._thread_exit                           0x08002198   Section        0  thread.o(i._thread_exit)
    _thread_exit                             0x08002199   Thumb Code    52  thread.o(i._thread_exit)
    i._thread_get_mutex_priority             0x080021d0   Section        0  ipc.o(i._thread_get_mutex_priority)
    _thread_get_mutex_priority               0x080021d1   Thumb Code    32  ipc.o(i._thread_get_mutex_priority)
    i._thread_init                           0x080021f0   Section        0  thread.o(i._thread_init)
    _thread_init                             0x080021f1   Thumb Code   144  thread.o(i._thread_init)
    i._thread_timeout                        0x080022b0   Section        0  thread.o(i._thread_timeout)
    _thread_timeout                          0x080022b1   Thumb Code    94  thread.o(i._thread_timeout)
    i._thread_update_priority                0x08002330   Section        0  ipc.o(i._thread_update_priority)
    _thread_update_priority                  0x08002331   Thumb Code   108  ipc.o(i._thread_update_priority)
    i._timer_init                            0x0800239c   Section        0  timer.o(i._timer_init)
    _timer_init                              0x0800239d   Thumb Code    28  timer.o(i._timer_init)
    i._timer_list_next_timeout               0x080023b8   Section        0  timer.o(i._timer_list_next_timeout)
    _timer_list_next_timeout                 0x080023b9   Thumb Code    38  timer.o(i._timer_list_next_timeout)
    i._timer_remove                          0x080023de   Section        0  timer.o(i._timer_remove)
    _timer_remove                            0x080023df   Thumb Code     6  timer.o(i._timer_remove)
    i._timer_thread_entry                    0x080023e4   Section        0  timer.o(i._timer_thread_entry)
    _timer_thread_entry                      0x080023e5   Thumb Code    56  timer.o(i._timer_thread_entry)
    i.idle_thread_entry                      0x08002420   Section        0  idle.o(i.idle_thread_entry)
    idle_thread_entry                        0x08002421   Thumb Code    72  idle.o(i.idle_thread_entry)
    i.led_thread_entry                       0x0800246c   Section        0  main.o(i.led_thread_entry)
    i.main                                   0x08002494   Section        0  main.o(i.main)
    i.main_thread_entry                      0x08002504   Section        0  components.o(i.main_thread_entry)
    i.plug_holes                             0x08002514   Section        0  mem.o(i.plug_holes)
    plug_holes                               0x08002515   Thumb Code   128  mem.o(i.plug_holes)
    i.print_number                           0x080025ec   Section        0  kservice.o(i.print_number)
    print_number                             0x080025ed   Thumb Code   286  kservice.o(i.print_number)
    i.rt_application_init                    0x08002718   Section        0  components.o(i.rt_application_init)
    i.rt_assert_handler                      0x08002768   Section        0  kservice.o(i.rt_assert_handler)
    i.rt_components_init                     0x080027d4   Section        0  components.o(i.rt_components_init)
    i.rt_critical_level                      0x080027f0   Section        0  scheduler.o(i.rt_critical_level)
    i.rt_device_write                        0x080027fc   Section        0  device.o(i.rt_device_write)
    i.rt_enter_critical                      0x080028ac   Section        0  scheduler.o(i.rt_enter_critical)
    i.rt_exit_critical                       0x080028c8   Section        0  scheduler.o(i.rt_exit_critical)
    i.rt_free                                0x08002900   Section        0  kservice.o(i.rt_free)
    i.rt_hw_board_init                       0x08002920   Section        0  board.o(i.rt_hw_board_init)
    i.rt_hw_console_output                   0x08002948   Section        0  board.o(i.rt_hw_console_output)
    i.rt_hw_hard_fault_exception             0x080029a4   Section        0  cpuport.o(i.rt_hw_hard_fault_exception)
    i.rt_hw_stack_init                       0x08002bb4   Section        0  cpuport.o(i.rt_hw_stack_init)
    i.rt_interrupt_enter                     0x08002bf0   Section        0  irq.o(i.rt_interrupt_enter)
    i.rt_interrupt_get_nest                  0x08002c0c   Section        0  irq.o(i.rt_interrupt_get_nest)
    i.rt_interrupt_leave                     0x08002c24   Section        0  irq.o(i.rt_interrupt_leave)
    i.rt_kprintf                             0x08002c40   Section        0  kservice.o(i.rt_kprintf)
    i.rt_list_insert_after                   0x08002c80   Section        0  ipc.o(i.rt_list_insert_after)
    rt_list_insert_after                     0x08002c81   Thumb Code    14  ipc.o(i.rt_list_insert_after)
    i.rt_list_insert_after                   0x08002c8e   Section        0  object.o(i.rt_list_insert_after)
    rt_list_insert_after                     0x08002c8f   Thumb Code    14  object.o(i.rt_list_insert_after)
    i.rt_list_insert_after                   0x08002c9c   Section        0  timer.o(i.rt_list_insert_after)
    rt_list_insert_after                     0x08002c9d   Thumb Code    14  timer.o(i.rt_list_insert_after)
    i.rt_list_insert_before                  0x08002caa   Section        0  ipc.o(i.rt_list_insert_before)
    rt_list_insert_before                    0x08002cab   Thumb Code    14  ipc.o(i.rt_list_insert_before)
    i.rt_list_remove                         0x08002cb8   Section        0  ipc.o(i.rt_list_remove)
    rt_list_remove                           0x08002cb9   Thumb Code    18  ipc.o(i.rt_list_remove)
    i.rt_list_remove                         0x08002cca   Section        0  object.o(i.rt_list_remove)
    rt_list_remove                           0x08002ccb   Thumb Code    18  object.o(i.rt_list_remove)
    i.rt_list_remove                         0x08002cdc   Section        0  thread.o(i.rt_list_remove)
    rt_list_remove                           0x08002cdd   Thumb Code    18  thread.o(i.rt_list_remove)
    i.rt_list_remove                         0x08002cee   Section        0  timer.o(i.rt_list_remove)
    rt_list_remove                           0x08002cef   Thumb Code    18  timer.o(i.rt_list_remove)
    i.rt_malloc                              0x08002d00   Section        0  kservice.o(i.rt_malloc)
    i.rt_memset                              0x08002d24   Section        0  kservice.o(i.rt_memset)
    i.rt_mutex_drop_thread                   0x08002d7a   Section        0  ipc.o(i.rt_mutex_drop_thread)
    i.rt_mutex_init                          0x08002dd0   Section        0  ipc.o(i.rt_mutex_init)
    i.rt_mutex_release                       0x08002e2c   Section        0  ipc.o(i.rt_mutex_release)
    i.rt_mutex_take                          0x08002ffa   Section        0  ipc.o(i.rt_mutex_take)
    i.rt_object_allocate                     0x08003000   Section        0  object.o(i.rt_object_allocate)
    i.rt_object_delete                       0x080030d0   Section        0  object.o(i.rt_object_delete)
    i.rt_object_detach                       0x0800315c   Section        0  object.o(i.rt_object_detach)
    i.rt_object_get_information              0x080031a4   Section        0  object.o(i.rt_object_get_information)
    i.rt_object_get_type                     0x080031c8   Section        0  object.o(i.rt_object_get_type)
    i.rt_object_init                         0x080031fc   Section        0  object.o(i.rt_object_init)
    i.rt_object_is_systemobject              0x080032a0   Section        0  object.o(i.rt_object_is_systemobject)
    i.rt_schedule                            0x080032d8   Section        0  scheduler.o(i.rt_schedule)
    i.rt_schedule_insert_thread              0x080033a4   Section        0  scheduler.o(i.rt_schedule_insert_thread)
    i.rt_schedule_remove_thread              0x08003440   Section        0  scheduler.o(i.rt_schedule_remove_thread)
    i.rt_set_errno                           0x080034b0   Section        0  kservice.o(i.rt_set_errno)
    i.rt_show_version                        0x080034d0   Section        0  kservice.o(i.rt_show_version)
    i.rt_smem_alloc                          0x08003594   Section        0  mem.o(i.rt_smem_alloc)
    i.rt_smem_free                           0x08003788   Section        0  mem.o(i.rt_smem_free)
    i.rt_smem_init                           0x08003924   Section        0  mem.o(i.rt_smem_init)
    i.rt_snprintf                            0x080039f8   Section        0  kservice.o(i.rt_snprintf)
    i.rt_soft_timer_check                    0x08003a0c   Section        0  timer.o(i.rt_soft_timer_check)
    i.rt_strncpy                             0x08003aa8   Section        0  kservice.o(i.rt_strncpy)
    i.rt_system_heap_init                    0x08003ad0   Section        0  kservice.o(i.rt_system_heap_init)
    i.rt_system_scheduler_init               0x08003b40   Section        0  scheduler.o(i.rt_system_scheduler_init)
    i.rt_system_scheduler_start              0x08003b68   Section        0  scheduler.o(i.rt_system_scheduler_start)
    i.rt_system_timer_init                   0x08003b90   Section        0  timer.o(i.rt_system_timer_init)
    i.rt_system_timer_thread_init            0x08003b9c   Section        0  timer.o(i.rt_system_timer_thread_init)
    i.rt_thread_control                      0x08003be0   Section        0  thread.o(i.rt_thread_control)
    i.rt_thread_create                       0x08003ca0   Section        0  thread.o(i.rt_thread_create)
    i.rt_thread_defunct_dequeue              0x08003ce8   Section        0  idle.o(i.rt_thread_defunct_dequeue)
    i.rt_thread_defunct_enqueue              0x08003d18   Section        0  idle.o(i.rt_thread_defunct_enqueue)
    i.rt_thread_delay                        0x08003d30   Section        0  thread.o(i.rt_thread_delay)
    i.rt_thread_delete                       0x08003d34   Section        0  thread.o(i.rt_thread_delete)
    i.rt_thread_detach                       0x08003e20   Section        0  thread.o(i.rt_thread_detach)
    i.rt_thread_idle_init                    0x08003f00   Section        0  idle.o(i.rt_thread_idle_init)
    i.rt_thread_init                         0x08003f48   Section        0  thread.o(i.rt_thread_init)
    i.rt_thread_resume                       0x08003fd4   Section        0  thread.o(i.rt_thread_resume)
    i.rt_thread_self                         0x0800404c   Section        0  thread.o(i.rt_thread_self)
    i.rt_thread_sleep                        0x08004058   Section        0  thread.o(i.rt_thread_sleep)
    i.rt_thread_startup                      0x08004200   Section        0  thread.o(i.rt_thread_startup)
    i.rt_thread_suspend_with_flag            0x080042b8   Section        0  thread.o(i.rt_thread_suspend_with_flag)
    i.rt_tick_get                            0x080043d8   Section        0  clock.o(i.rt_tick_get)
    i.rt_tick_increase                       0x080043e4   Section        0  clock.o(i.rt_tick_increase)
    i.rt_timer_check                         0x0800442c   Section        0  timer.o(i.rt_timer_check)
    i.rt_timer_control                       0x080044b8   Section        0  timer.o(i.rt_timer_control)
    i.rt_timer_detach                        0x080045d4   Section        0  timer.o(i.rt_timer_detach)
    i.rt_timer_init                          0x080046b4   Section        0  timer.o(i.rt_timer_init)
    i.rt_timer_start                         0x08004754   Section        0  timer.o(i.rt_timer_start)
    i.rt_timer_stop                          0x08004884   Section        0  timer.o(i.rt_timer_stop)
    i.rt_vsnprintf                           0x08004930   Section        0  kservice.o(i.rt_vsnprintf)
    i.rti_board_end                          0x08004bc6   Section        0  components.o(i.rti_board_end)
    rti_board_end                            0x08004bc7   Thumb Code     4  components.o(i.rti_board_end)
    i.rti_board_start                        0x08004bca   Section        0  components.o(i.rti_board_start)
    rti_board_start                          0x08004bcb   Thumb Code     4  components.o(i.rti_board_start)
    i.rti_end                                0x08004bce   Section        0  components.o(i.rti_end)
    rti_end                                  0x08004bcf   Thumb Code     4  components.o(i.rti_end)
    i.rti_start                              0x08004bd2   Section        0  components.o(i.rti_start)
    rti_start                                0x08004bd3   Thumb Code     4  components.o(i.rti_start)
    i.rtthread_startup                       0x08004bd6   Section        0  components.o(i.rtthread_startup)
    i.skip_atoi                              0x08004c00   Section        0  kservice.o(i.skip_atoi)
    skip_atoi                                0x08004c01   Thumb Code    40  kservice.o(i.skip_atoi)
    .constdata                               0x08004c28   Section       21  board.o(.constdata)
    __FUNCTION__                             0x08004c28   Data          21  board.o(.constdata)
    .constdata                               0x08004c40   Section       64  system_stm32l4xx.o(.constdata)
    .constdata                               0x08004c80   Section        8  system_stm32l4xx.o(.constdata)
    .constdata                               0x08004c88   Section       20  components.o(.constdata)
    __FUNCTION__                             0x08004c88   Data          20  components.o(.constdata)
    .constdata                               0x08004c9c   Section      186  device.o(.constdata)
    __FUNCTION__                             0x08004c9c   Data          21  device.o(.constdata)
    __FUNCTION__                             0x08004cb1   Data          18  device.o(.constdata)
    __FUNCTION__                             0x08004cc3   Data          15  device.o(.constdata)
    __FUNCTION__                             0x08004cd2   Data          15  device.o(.constdata)
    __FUNCTION__                             0x08004ce1   Data          16  device.o(.constdata)
    __FUNCTION__                             0x08004cf1   Data          15  device.o(.constdata)
    __FUNCTION__                             0x08004d00   Data          16  device.o(.constdata)
    __FUNCTION__                             0x08004d10   Data          18  device.o(.constdata)
    __FUNCTION__                             0x08004d22   Data          26  device.o(.constdata)
    __FUNCTION__                             0x08004d3c   Data          26  device.o(.constdata)
    .constdata                               0x08004d56   Section      546  ipc.o(.constdata)
    __FUNCTION__                             0x08004d56   Data          18  ipc.o(.constdata)
    __FUNCTION__                             0x08004d68   Data          12  ipc.o(.constdata)
    __FUNCTION__                             0x08004d74   Data          14  ipc.o(.constdata)
    __FUNCTION__                             0x08004d82   Data          14  ipc.o(.constdata)
    __FUNCTION__                             0x08004d90   Data          14  ipc.o(.constdata)
    __FUNCTION__                             0x08004d9e   Data          13  ipc.o(.constdata)
    __FUNCTION__                             0x08004dab   Data          15  ipc.o(.constdata)
    __FUNCTION__                             0x08004dba   Data          15  ipc.o(.constdata)
    __FUNCTION__                             0x08004dc9   Data          14  ipc.o(.constdata)
    __FUNCTION__                             0x08004dd7   Data          16  ipc.o(.constdata)
    __FUNCTION__                             0x08004de7   Data          16  ipc.o(.constdata)
    __FUNCTION__                             0x08004df7   Data          16  ipc.o(.constdata)
    __FUNCTION__                             0x08004e07   Data          15  ipc.o(.constdata)
    __FUNCTION__                             0x08004e16   Data          17  ipc.o(.constdata)
    __FUNCTION__                             0x08004e27   Data          17  ipc.o(.constdata)
    __FUNCTION__                             0x08004e38   Data          14  ipc.o(.constdata)
    __FUNCTION__                             0x08004e46   Data          16  ipc.o(.constdata)
    __FUNCTION__                             0x08004e56   Data          16  ipc.o(.constdata)
    __FUNCTION__                             0x08004e66   Data          16  ipc.o(.constdata)
    __FUNCTION__                             0x08004e76   Data          14  ipc.o(.constdata)
    __FUNCTION__                             0x08004e84   Data          15  ipc.o(.constdata)
    __FUNCTION__                             0x08004e93   Data          17  ipc.o(.constdata)
    __FUNCTION__                             0x08004ea4   Data          11  ipc.o(.constdata)
    __FUNCTION__                             0x08004eaf   Data          13  ipc.o(.constdata)
    __FUNCTION__                             0x08004ebc   Data          13  ipc.o(.constdata)
    __FUNCTION__                             0x08004ec9   Data          13  ipc.o(.constdata)
    __FUNCTION__                             0x08004ed6   Data          17  ipc.o(.constdata)
    __FUNCTION__                             0x08004ee7   Data          13  ipc.o(.constdata)
    __FUNCTION__                             0x08004ef4   Data          12  ipc.o(.constdata)
    __FUNCTION__                             0x08004f00   Data          14  ipc.o(.constdata)
    __FUNCTION__                             0x08004f0e   Data          11  ipc.o(.constdata)
    __FUNCTION__                             0x08004f19   Data          13  ipc.o(.constdata)
    __FUNCTION__                             0x08004f26   Data          13  ipc.o(.constdata)
    __FUNCTION__                             0x08004f33   Data          13  ipc.o(.constdata)
    __FUNCTION__                             0x08004f40   Data          17  ipc.o(.constdata)
    __FUNCTION__                             0x08004f51   Data          13  ipc.o(.constdata)
    __FUNCTION__                             0x08004f5e   Data          12  ipc.o(.constdata)
    __FUNCTION__                             0x08004f6a   Data          14  ipc.o(.constdata)
    .constdata                               0x08004f78   Section       67  kservice.o(.constdata)
    small_digits                             0x08004f78   Data          17  kservice.o(.constdata)
    large_digits                             0x08004f89   Data          17  kservice.o(.constdata)
    __FUNCTION__                             0x08004f9a   Data          13  kservice.o(.constdata)
    __FUNCTION__                             0x08004fa7   Data          20  kservice.o(.constdata)
    .constdata                               0x08004fbb   Section       69  mem.o(.constdata)
    __FUNCTION__                             0x08004fbb   Data          11  mem.o(.constdata)
    __FUNCTION__                             0x08004fc6   Data          15  mem.o(.constdata)
    __FUNCTION__                             0x08004fd5   Data          14  mem.o(.constdata)
    __FUNCTION__                             0x08004fe3   Data          16  mem.o(.constdata)
    __FUNCTION__                             0x08004ff3   Data          13  mem.o(.constdata)
    .constdata                               0x08005000   Section      128  object.o(.constdata)
    __FUNCTION__                             0x08005000   Data          15  object.o(.constdata)
    __FUNCTION__                             0x0800500f   Data          17  object.o(.constdata)
    __FUNCTION__                             0x08005020   Data          19  object.o(.constdata)
    __FUNCTION__                             0x08005033   Data          17  object.o(.constdata)
    __FUNCTION__                             0x08005044   Data          26  object.o(.constdata)
    __FUNCTION__                             0x0800505e   Data          19  object.o(.constdata)
    __FUNCTION__                             0x08005071   Data          15  object.o(.constdata)
    .constdata                               0x08005080   Section       75  scheduler.o(.constdata)
    __FUNCTION__                             0x08005080   Data          23  scheduler.o(.constdata)
    __FUNCTION__                             0x08005097   Data          26  scheduler.o(.constdata)
    __FUNCTION__                             0x080050b1   Data          26  scheduler.o(.constdata)
    .constdata                               0x080050cb   Section      225  thread.o(.constdata)
    __FUNCTION__                             0x080050cb   Data          16  thread.o(.constdata)
    __FUNCTION__                             0x080050db   Data          13  thread.o(.constdata)
    __FUNCTION__                             0x080050e8   Data          15  thread.o(.constdata)
    __FUNCTION__                             0x080050f7   Data          18  thread.o(.constdata)
    __FUNCTION__                             0x08005109   Data          17  thread.o(.constdata)
    __FUNCTION__                             0x0800511a   Data          17  thread.o(.constdata)
    __FUNCTION__                             0x0800512b   Data          16  thread.o(.constdata)
    __FUNCTION__                             0x0800513b   Data          22  thread.o(.constdata)
    __FUNCTION__                             0x08005151   Data          18  thread.o(.constdata)
    __FUNCTION__                             0x08005163   Data          28  thread.o(.constdata)
    __FUNCTION__                             0x0800517f   Data          28  thread.o(.constdata)
    __FUNCTION__                             0x0800519b   Data          17  thread.o(.constdata)
    .constdata                               0x080051ac   Section      108  timer.o(.constdata)
    __FUNCTION__                             0x080051ac   Data          14  timer.o(.constdata)
    __FUNCTION__                             0x080051ba   Data          16  timer.o(.constdata)
    __FUNCTION__                             0x080051ca   Data          16  timer.o(.constdata)
    __FUNCTION__                             0x080051da   Data          16  timer.o(.constdata)
    __FUNCTION__                             0x080051ea   Data          15  timer.o(.constdata)
    __FUNCTION__                             0x080051f9   Data          14  timer.o(.constdata)
    __FUNCTION__                             0x08005207   Data          17  timer.o(.constdata)
    .conststring                             0x08005218   Section       67  ipc.o(.conststring)
    .conststring                             0x0800525c   Section       88  kservice.o(.conststring)
    .conststring                             0x080052b4   Section      424  mem.o(.conststring)
    .conststring                             0x0800545c   Section      134  thread.o(.conststring)
    .rti_fn.0                                0x080054e4   Section        4  components.o(.rti_fn.0)
    __tagsym$$used                           0x080054e4   Number         0  components.o(.rti_fn.0)
    .rti_fn.0.end                            0x080054e8   Section        4  components.o(.rti_fn.0.end)
    __tagsym$$used                           0x080054e8   Number         0  components.o(.rti_fn.0.end)
    .rti_fn.1.end                            0x080054ec   Section        4  components.o(.rti_fn.1.end)
    __tagsym$$used                           0x080054ec   Number         0  components.o(.rti_fn.1.end)
    .rti_fn.6.end                            0x080054f0   Section        4  components.o(.rti_fn.6.end)
    __tagsym$$used                           0x080054f0   Number         0  components.o(.rti_fn.6.end)
    .data                                    0x20000000   Section       12  stm32l4xx_hal.o(.data)
    .data                                    0x2000000c   Section        4  system_stm32l4xx.o(.data)
    .data                                    0x20000010   Section        4  cpuport.o(.data)
    rt_exception_hook                        0x20000010   Data           4  cpuport.o(.data)
    .data                                    0x20000014   Section        4  cpuport.o(.data)
    .data                                    0x20000018   Section        4  cpuport.o(.data)
    .data                                    0x2000001c   Section        4  cpuport.o(.data)
    .data                                    0x20000020   Section        4  clock.o(.data)
    rt_tick                                  0x20000020   Data           4  clock.o(.data)
    .data                                    0x20000024   Section        8  idle.o(.data)
    _rt_thread_defunct                       0x20000024   Data           8  idle.o(.data)
    .data                                    0x2000002c   Section        1  irq.o(.data)
    .data                                    0x20000030   Section       72  kservice.o(.data)
    _console_device                          0x20000030   Data           4  kservice.o(.data)
    __rt_errno                               0x20000034   Data           4  kservice.o(.data)
    rt_malloc_hook                           0x20000038   Data           4  kservice.o(.data)
    rt_free_hook                             0x2000003c   Data           4  kservice.o(.data)
    system_heap                              0x20000040   Data           4  kservice.o(.data)
    rt_errno_strs                            0x20000048   Data          48  kservice.o(.data)
    .data                                    0x20000078   Section      176  object.o(.data)
    _object_container                        0x20000078   Data         176  object.o(.data)
    .data                                    0x20000128   Section       12  scheduler.o(.data)
    rt_scheduler_lock_nest                   0x2000012a   Data           2  scheduler.o(.data)
    .data                                    0x20000134   Section       24  timer.o(.data)
    _soft_timer_status                       0x20000134   Data           1  timer.o(.data)
    random_nr                                0x20000138   Data           4  timer.o(.data)
    _timer_list                              0x2000013c   Data           8  timer.o(.data)
    _soft_timer_list                         0x20000144   Data           8  timer.o(.data)
    .bss                                     0x2000014c   Section      132  usart.o(.bss)
    .bss                                     0x200001d0   Section      412  idle.o(.bss)
    idle_thread                              0x200001d0   Data         140  idle.o(.bss)
    idle_thread_stack                        0x2000025c   Data         256  idle.o(.bss)
    idle_hook_list                           0x2000035c   Data          16  idle.o(.bss)
    .bss                                     0x2000036c   Section      300  kservice.o(.bss)
    rt_log_buf                               0x2000036c   Data         256  kservice.o(.bss)
    _lock                                    0x2000046c   Data          44  kservice.o(.bss)
    .bss                                     0x20000498   Section      256  scheduler.o(.bss)
    .bss                                     0x20000598   Section      652  timer.o(.bss)
    _timer_thread                            0x20000598   Data         140  timer.o(.bss)
    _timer_thread_stack                      0x20000624   Data         512  timer.o(.bss)
    STACK                                    0x20000828   Section     1024  startup_stm32l475xx.o(STACK)

    Global Symbols

    Symbol Name                              Value     Ov Type        Size  Object(Section)

    BuildAttributes$$THM_ISAv4$E$P$D$K$B$S$7EM$VFPi3$EXTD16$VFPS$VFMA$PE$A:L22UL41UL21$X:L11$S22US41US21$IEEE1$IW$USESV6$~STKCKD$USESV7$~SHL$OSPACE$EBA8$MICROLIB$REQ8$PRES8$EABIv2 0x00000000   Number         0  anon$$obj.o ABSOLUTE
    __ARM_use_no_argv                        0x00000000   Number         0  main.o ABSOLUTE
    __arm_fini_                               - Undefined Weak Reference
    __cpp_initialize__aeabi_                  - Undefined Weak Reference
    __cxa_finalize                            - Undefined Weak Reference
    _clock_init                               - Undefined Weak Reference
    _microlib_exit                            - Undefined Weak Reference
    __Vectors_Size                           0x00000188   Number         0  startup_stm32l475xx.o ABSOLUTE
    __Vectors                                0x08000000   Data           4  startup_stm32l475xx.o(RESET)
    __Vectors_End                            0x08000188   Data           0  startup_stm32l475xx.o(RESET)
    __main                                   0x08000189   Thumb Code     0  entry.o(.ARM.Collect$$$$00000000)
    _main_stk                                0x08000189   Thumb Code     0  entry2.o(.ARM.Collect$$$$00000001)
    _main_scatterload                        0x0800018d   Thumb Code     0  entry5.o(.ARM.Collect$$$$00000004)
    __main_after_scatterload                 0x08000191   Thumb Code     0  entry5.o(.ARM.Collect$$$$00000004)
    _main_clock                              0x08000191   Thumb Code     0  entry7b.o(.ARM.Collect$$$$00000008)
    _main_cpp_init                           0x08000191   Thumb Code     0  entry8b.o(.ARM.Collect$$$$0000000A)
    _main_init                               0x08000191   Thumb Code     0  entry9a.o(.ARM.Collect$$$$0000000B)
    __rt_lib_shutdown_fini                   0x08000199   Thumb Code     0  entry12b.o(.ARM.Collect$$$$0000000E)
    __rt_final_cpp                           0x0800019d   Thumb Code     0  entry10a.o(.ARM.Collect$$$$0000000F)
    __rt_final_exit                          0x0800019d   Thumb Code     0  entry11a.o(.ARM.Collect$$$$00000011)
    __rt_ffs                                 0x080001a1   Thumb Code    16  cpuport.o(.emb_text)
    Reset_Handler                            0x080001b1   Thumb Code     8  startup_stm32l475xx.o(.text)
    ADC1_2_IRQHandler                        0x080001cb   Thumb Code     0  startup_stm32l475xx.o(.text)
    ADC3_IRQHandler                          0x080001cb   Thumb Code     0  startup_stm32l475xx.o(.text)
    CAN1_RX0_IRQHandler                      0x080001cb   Thumb Code     0  startup_stm32l475xx.o(.text)
    CAN1_RX1_IRQHandler                      0x080001cb   Thumb Code     0  startup_stm32l475xx.o(.text)
    CAN1_SCE_IRQHandler                      0x080001cb   Thumb Code     0  startup_stm32l475xx.o(.text)
    CAN1_TX_IRQHandler                       0x080001cb   Thumb Code     0  startup_stm32l475xx.o(.text)
    COMP_IRQHandler                          0x080001cb   Thumb Code     0  startup_stm32l475xx.o(.text)
    DFSDM1_FLT0_IRQHandler                   0x080001cb   Thumb Code     0  startup_stm32l475xx.o(.text)
    DFSDM1_FLT1_IRQHandler                   0x080001cb   Thumb Code     0  startup_stm32l475xx.o(.text)
    DFSDM1_FLT2_IRQHandler                   0x080001cb   Thumb Code     0  startup_stm32l475xx.o(.text)
    DFSDM1_FLT3_IRQHandler                   0x080001cb   Thumb Code     0  startup_stm32l475xx.o(.text)
    DMA1_Channel1_IRQHandler                 0x080001cb   Thumb Code     0  startup_stm32l475xx.o(.text)
    DMA1_Channel2_IRQHandler                 0x080001cb   Thumb Code     0  startup_stm32l475xx.o(.text)
    DMA1_Channel3_IRQHandler                 0x080001cb   Thumb Code     0  startup_stm32l475xx.o(.text)
    DMA1_Channel4_IRQHandler                 0x080001cb   Thumb Code     0  startup_stm32l475xx.o(.text)
    DMA1_Channel5_IRQHandler                 0x080001cb   Thumb Code     0  startup_stm32l475xx.o(.text)
    DMA1_Channel6_IRQHandler                 0x080001cb   Thumb Code     0  startup_stm32l475xx.o(.text)
    DMA1_Channel7_IRQHandler                 0x080001cb   Thumb Code     0  startup_stm32l475xx.o(.text)
    DMA2_Channel1_IRQHandler                 0x080001cb   Thumb Code     0  startup_stm32l475xx.o(.text)
    DMA2_Channel2_IRQHandler                 0x080001cb   Thumb Code     0  startup_stm32l475xx.o(.text)
    DMA2_Channel3_IRQHandler                 0x080001cb   Thumb Code     0  startup_stm32l475xx.o(.text)
    DMA2_Channel4_IRQHandler                 0x080001cb   Thumb Code     0  startup_stm32l475xx.o(.text)
    DMA2_Channel5_IRQHandler                 0x080001cb   Thumb Code     0  startup_stm32l475xx.o(.text)
    DMA2_Channel6_IRQHandler                 0x080001cb   Thumb Code     0  startup_stm32l475xx.o(.text)
    DMA2_Channel7_IRQHandler                 0x080001cb   Thumb Code     0  startup_stm32l475xx.o(.text)
    EXTI0_IRQHandler                         0x080001cb   Thumb Code     0  startup_stm32l475xx.o(.text)
    EXTI15_10_IRQHandler                     0x080001cb   Thumb Code     0  startup_stm32l475xx.o(.text)
    EXTI1_IRQHandler                         0x080001cb   Thumb Code     0  startup_stm32l475xx.o(.text)
    EXTI2_IRQHandler                         0x080001cb   Thumb Code     0  startup_stm32l475xx.o(.text)
    EXTI3_IRQHandler                         0x080001cb   Thumb Code     0  startup_stm32l475xx.o(.text)
    EXTI4_IRQHandler                         0x080001cb   Thumb Code     0  startup_stm32l475xx.o(.text)
    EXTI9_5_IRQHandler                       0x080001cb   Thumb Code     0  startup_stm32l475xx.o(.text)
    FLASH_IRQHandler                         0x080001cb   Thumb Code     0  startup_stm32l475xx.o(.text)
    FMC_IRQHandler                           0x080001cb   Thumb Code     0  startup_stm32l475xx.o(.text)
    FPU_IRQHandler                           0x080001cb   Thumb Code     0  startup_stm32l475xx.o(.text)
    I2C1_ER_IRQHandler                       0x080001cb   Thumb Code     0  startup_stm32l475xx.o(.text)
    I2C1_EV_IRQHandler                       0x080001cb   Thumb Code     0  startup_stm32l475xx.o(.text)
    I2C2_ER_IRQHandler                       0x080001cb   Thumb Code     0  startup_stm32l475xx.o(.text)
    I2C2_EV_IRQHandler                       0x080001cb   Thumb Code     0  startup_stm32l475xx.o(.text)
    I2C3_ER_IRQHandler                       0x080001cb   Thumb Code     0  startup_stm32l475xx.o(.text)
    I2C3_EV_IRQHandler                       0x080001cb   Thumb Code     0  startup_stm32l475xx.o(.text)
    LPTIM1_IRQHandler                        0x080001cb   Thumb Code     0  startup_stm32l475xx.o(.text)
    LPTIM2_IRQHandler                        0x080001cb   Thumb Code     0  startup_stm32l475xx.o(.text)
    LPUART1_IRQHandler                       0x080001cb   Thumb Code     0  startup_stm32l475xx.o(.text)
    OTG_FS_IRQHandler                        0x080001cb   Thumb Code     0  startup_stm32l475xx.o(.text)
    PVD_PVM_IRQHandler                       0x080001cb   Thumb Code     0  startup_stm32l475xx.o(.text)
    QUADSPI_IRQHandler                       0x080001cb   Thumb Code     0  startup_stm32l475xx.o(.text)
    RCC_IRQHandler                           0x080001cb   Thumb Code     0  startup_stm32l475xx.o(.text)
    RNG_IRQHandler                           0x080001cb   Thumb Code     0  startup_stm32l475xx.o(.text)
    RTC_Alarm_IRQHandler                     0x080001cb   Thumb Code     0  startup_stm32l475xx.o(.text)
    RTC_WKUP_IRQHandler                      0x080001cb   Thumb Code     0  startup_stm32l475xx.o(.text)
    SAI1_IRQHandler                          0x080001cb   Thumb Code     0  startup_stm32l475xx.o(.text)
    SAI2_IRQHandler                          0x080001cb   Thumb Code     0  startup_stm32l475xx.o(.text)
    SDMMC1_IRQHandler                        0x080001cb   Thumb Code     0  startup_stm32l475xx.o(.text)
    SPI1_IRQHandler                          0x080001cb   Thumb Code     0  startup_stm32l475xx.o(.text)
    SPI2_IRQHandler                          0x080001cb   Thumb Code     0  startup_stm32l475xx.o(.text)
    SPI3_IRQHandler                          0x080001cb   Thumb Code     0  startup_stm32l475xx.o(.text)
    SWPMI1_IRQHandler                        0x080001cb   Thumb Code     0  startup_stm32l475xx.o(.text)
    TAMP_STAMP_IRQHandler                    0x080001cb   Thumb Code     0  startup_stm32l475xx.o(.text)
    TIM1_BRK_TIM15_IRQHandler                0x080001cb   Thumb Code     0  startup_stm32l475xx.o(.text)
    TIM1_CC_IRQHandler                       0x080001cb   Thumb Code     0  startup_stm32l475xx.o(.text)
    TIM1_TRG_COM_TIM17_IRQHandler            0x080001cb   Thumb Code     0  startup_stm32l475xx.o(.text)
    TIM1_UP_TIM16_IRQHandler                 0x080001cb   Thumb Code     0  startup_stm32l475xx.o(.text)
    TIM2_IRQHandler                          0x080001cb   Thumb Code     0  startup_stm32l475xx.o(.text)
    TIM3_IRQHandler                          0x080001cb   Thumb Code     0  startup_stm32l475xx.o(.text)
    TIM4_IRQHandler                          0x080001cb   Thumb Code     0  startup_stm32l475xx.o(.text)
    TIM5_IRQHandler                          0x080001cb   Thumb Code     0  startup_stm32l475xx.o(.text)
    TIM6_DAC_IRQHandler                      0x080001cb   Thumb Code     0  startup_stm32l475xx.o(.text)
    TIM7_IRQHandler                          0x080001cb   Thumb Code     0  startup_stm32l475xx.o(.text)
    TIM8_BRK_IRQHandler                      0x080001cb   Thumb Code     0  startup_stm32l475xx.o(.text)
    TIM8_CC_IRQHandler                       0x080001cb   Thumb Code     0  startup_stm32l475xx.o(.text)
    TIM8_TRG_COM_IRQHandler                  0x080001cb   Thumb Code     0  startup_stm32l475xx.o(.text)
    TIM8_UP_IRQHandler                       0x080001cb   Thumb Code     0  startup_stm32l475xx.o(.text)
    TSC_IRQHandler                           0x080001cb   Thumb Code     0  startup_stm32l475xx.o(.text)
    UART4_IRQHandler                         0x080001cb   Thumb Code     0  startup_stm32l475xx.o(.text)
    UART5_IRQHandler                         0x080001cb   Thumb Code     0  startup_stm32l475xx.o(.text)
    USART1_IRQHandler                        0x080001cb   Thumb Code     0  startup_stm32l475xx.o(.text)
    USART2_IRQHandler                        0x080001cb   Thumb Code     0  startup_stm32l475xx.o(.text)
    USART3_IRQHandler                        0x080001cb   Thumb Code     0  startup_stm32l475xx.o(.text)
    WWDG_IRQHandler                          0x080001cb   Thumb Code     0  startup_stm32l475xx.o(.text)
    rt_hw_interrupt_disable                  0x080001d5   Thumb Code     8  context_rvds.o(.text)
    rt_hw_interrupt_enable                   0x080001dd   Thumb Code     6  context_rvds.o(.text)
    rt_hw_context_switch                     0x080001e3   Thumb Code    32  context_rvds.o(.text)
    rt_hw_context_switch_interrupt           0x080001e3   Thumb Code     0  context_rvds.o(.text)
    PendSV_Handler                           0x08000203   Thumb Code   108  context_rvds.o(.text)
    rt_hw_context_switch_to                  0x0800026f   Thumb Code    76  context_rvds.o(.text)
    rt_hw_interrupt_thread_switch            0x080002bb   Thumb Code     2  context_rvds.o(.text)
    HardFault_Handler                        0x080002bd   Thumb Code    56  context_rvds.o(.text)
    __aeabi_uldivmod                         0x0800031d   Thumb Code    98  uldiv.o(.text)
    __aeabi_memset                           0x08000385   Thumb Code    14  memseta.o(.text)
    __aeabi_memset4                          0x08000385   Thumb Code     0  memseta.o(.text)
    __aeabi_memset8                          0x08000385   Thumb Code     0  memseta.o(.text)
    __aeabi_memclr                           0x08000393   Thumb Code     4  memseta.o(.text)
    __aeabi_memclr4                          0x08000393   Thumb Code     0  memseta.o(.text)
    __aeabi_memclr8                          0x08000393   Thumb Code     0  memseta.o(.text)
    _memset$wrapper                          0x08000397   Thumb Code    18  memseta.o(.text)
    __aeabi_llsl                             0x080003a9   Thumb Code    30  llshl.o(.text)
    _ll_shift_l                              0x080003a9   Thumb Code     0  llshl.o(.text)
    __aeabi_llsr                             0x080003c7   Thumb Code    32  llushr.o(.text)
    _ll_ushift_r                             0x080003c7   Thumb Code     0  llushr.o(.text)
    __scatterload                            0x080003e9   Thumb Code    28  init.o(.text)
    __scatterload_rt2                        0x080003e9   Thumb Code     0  init.o(.text)
    __decompress                             0x0800040d   Thumb Code     0  __dczerorl2.o(.text)
    __decompress1                            0x0800040d   Thumb Code    86  __dczerorl2.o(.text)
    main                                     0x08000463   Thumb Code    10  components.o(i.$Sub$$main)
    BusFault_Handler                         0x0800046d   Thumb Code     2  stm32l4xx_it.o(i.BusFault_Handler)
    DebugMon_Handler                         0x0800046f   Thumb Code     2  stm32l4xx_it.o(i.DebugMon_Handler)
    Error_Handler                            0x08000471   Thumb Code     4  main.o(i.Error_Handler)
    HAL_GPIO_Init                            0x08000475   Thumb Code   500  stm32l4xx_hal_gpio.o(i.HAL_GPIO_Init)
    HAL_GPIO_TogglePin                       0x08000693   Thumb Code    16  stm32l4xx_hal_gpio.o(i.HAL_GPIO_TogglePin)
    HAL_GPIO_WritePin                        0x080006a3   Thumb Code    10  stm32l4xx_hal_gpio.o(i.HAL_GPIO_WritePin)
    HAL_GetTick                              0x080006ad   Thumb Code     6  stm32l4xx_hal.o(i.HAL_GetTick)
    HAL_IncTick                              0x080006b9   Thumb Code    12  stm32l4xx_hal.o(i.HAL_IncTick)
    HAL_Init                                 0x080006c9   Thumb Code    30  stm32l4xx_hal.o(i.HAL_Init)
    HAL_InitTick                             0x080006e9   Thumb Code    58  stm32l4xx_hal.o(i.HAL_InitTick)
    HAL_MspInit                              0x0800072d   Thumb Code    38  stm32l4xx_hal_msp.o(i.HAL_MspInit)
    HAL_NVIC_SetPriority                     0x08000759   Thumb Code    60  stm32l4xx_hal_cortex.o(i.HAL_NVIC_SetPriority)
    HAL_NVIC_SetPriorityGrouping             0x08000799   Thumb Code    26  stm32l4xx_hal_cortex.o(i.HAL_NVIC_SetPriorityGrouping)
    HAL_PWREx_ControlVoltageScaling          0x080007bd   Thumb Code    90  stm32l4xx_hal_pwr_ex.o(i.HAL_PWREx_ControlVoltageScaling)
    HAL_PWREx_GetVoltageRange                0x08000825   Thumb Code    10  stm32l4xx_hal_pwr_ex.o(i.HAL_PWREx_GetVoltageRange)
    HAL_RCCEx_PeriphCLKConfig                0x08000835   Thumb Code   928  stm32l4xx_hal_rcc_ex.o(i.HAL_RCCEx_PeriphCLKConfig)
    HAL_RCC_ClockConfig                      0x08000be5   Thumb Code   304  stm32l4xx_hal_rcc.o(i.HAL_RCC_ClockConfig)
    HAL_RCC_GetPCLK1Freq                     0x08000d29   Thumb Code    24  stm32l4xx_hal_rcc.o(i.HAL_RCC_GetPCLK1Freq)
    HAL_RCC_GetPCLK2Freq                     0x08000d4d   Thumb Code    24  stm32l4xx_hal_rcc.o(i.HAL_RCC_GetPCLK2Freq)
    HAL_RCC_GetSysClockFreq                  0x08000d71   Thumb Code   150  stm32l4xx_hal_rcc.o(i.HAL_RCC_GetSysClockFreq)
    HAL_RCC_OscConfig                        0x08000e15   Thumb Code  1294  stm32l4xx_hal_rcc.o(i.HAL_RCC_OscConfig)
    HAL_SYSTICK_Config                       0x0800132d   Thumb Code    40  stm32l4xx_hal_cortex.o(i.HAL_SYSTICK_Config)
    HAL_UART_Init                            0x08001355   Thumb Code   102  stm32l4xx_hal_uart.o(i.HAL_UART_Init)
    HAL_UART_MspInit                         0x080013bd   Thumb Code   118  usart.o(i.HAL_UART_MspInit)
    HAL_UART_Transmit                        0x0800143d   Thumb Code   182  stm32l4xx_hal_uart.o(i.HAL_UART_Transmit)
    MX_GPIO_Init                             0x080014f5   Thumb Code   116  gpio.o(i.MX_GPIO_Init)
    MX_USART1_UART_Init                      0x08001571   Thumb Code    52  usart.o(i.MX_USART1_UART_Init)
    MemManage_Handler                        0x080015ad   Thumb Code     2  stm32l4xx_it.o(i.MemManage_Handler)
    NMI_Handler                              0x080015af   Thumb Code     2  stm32l4xx_it.o(i.NMI_Handler)
    SVC_Handler                              0x08001861   Thumb Code     2  stm32l4xx_it.o(i.SVC_Handler)
    SysTick_Handler                          0x08001863   Thumb Code    22  board.o(i.SysTick_Handler)
    SystemClock_Config                       0x08001879   Thumb Code   110  board.o(i.SystemClock_Config)
    SystemInit                               0x080018e9   Thumb Code    12  system_stm32l4xx.o(i.SystemInit)
    UART_AdvFeatureConfig                    0x080018f9   Thumb Code   200  stm32l4xx_hal_uart.o(i.UART_AdvFeatureConfig)
    UART_CheckIdleState                      0x080019c1   Thumb Code    92  stm32l4xx_hal_uart.o(i.UART_CheckIdleState)
    UART_SetConfig                           0x08001a1d   Thumb Code   542  stm32l4xx_hal_uart.o(i.UART_SetConfig)
    UART_WaitOnFlagUntilTimeout              0x08001c65   Thumb Code   198  stm32l4xx_hal_uart.o(i.UART_WaitOnFlagUntilTimeout)
    UsageFault_Handler                       0x08001d2b   Thumb Code     2  stm32l4xx_it.o(i.UsageFault_Handler)
    __scatterload_copy                       0x08001d4d   Thumb Code    14  handlers.o(i.__scatterload_copy)
    __scatterload_null                       0x08001d5b   Thumb Code     2  handlers.o(i.__scatterload_null)
    __scatterload_zeroinit                   0x08001d5d   Thumb Code    14  handlers.o(i.__scatterload_zeroinit)
    led_thread_entry                         0x0800246d   Thumb Code    18  main.o(i.led_thread_entry)
    $Super$$main                             0x08002495   Thumb Code    66  main.o(i.main)
    main_thread_entry                        0x08002505   Thumb Code    14  components.o(i.main_thread_entry)
    rt_application_init                      0x08002719   Thumb Code    48  components.o(i.rt_application_init)
    rt_assert_handler                        0x08002769   Thumb Code    46  kservice.o(i.rt_assert_handler)
    rt_components_init                       0x080027d5   Thumb Code    20  components.o(i.rt_components_init)
    rt_critical_level                        0x080027f1   Thumb Code     8  scheduler.o(i.rt_critical_level)
    rt_device_write                          0x080027fd   Thumb Code    96  device.o(i.rt_device_write)
    rt_enter_critical                        0x080028ad   Thumb Code    22  scheduler.o(i.rt_enter_critical)
    rt_exit_critical                         0x080028c9   Thumb Code    52  scheduler.o(i.rt_exit_critical)
    rt_free                                  0x08002901   Thumb Code    30  kservice.o(i.rt_free)
    rt_hw_board_init                         0x08002921   Thumb Code    30  board.o(i.rt_hw_board_init)
    rt_hw_console_output                     0x08002949   Thumb Code    66  board.o(i.rt_hw_console_output)
    rt_hw_hard_fault_exception               0x080029a5   Thumb Code   190  cpuport.o(i.rt_hw_hard_fault_exception)
    rt_hw_stack_init                         0x08002bb5   Thumb Code    54  cpuport.o(i.rt_hw_stack_init)
    rt_interrupt_enter                       0x08002bf1   Thumb Code    22  irq.o(i.rt_interrupt_enter)
    rt_interrupt_get_nest                    0x08002c0d   Thumb Code    18  irq.o(i.rt_interrupt_get_nest)
    rt_interrupt_leave                       0x08002c25   Thumb Code    22  irq.o(i.rt_interrupt_leave)
    rt_kprintf                               0x08002c41   Thumb Code    56  kservice.o(i.rt_kprintf)
    rt_malloc                                0x08002d01   Thumb Code    32  kservice.o(i.rt_malloc)
    rt_memset                                0x08002d25   Thumb Code    86  kservice.o(i.rt_memset)
    rt_mutex_drop_thread                     0x08002d7b   Thumb Code    86  ipc.o(i.rt_mutex_drop_thread)
    rt_mutex_init                            0x08002dd1   Thumb Code    66  ipc.o(i.rt_mutex_init)
    rt_mutex_release                         0x08002e2d   Thumb Code   326  ipc.o(i.rt_mutex_release)
    rt_mutex_take                            0x08002ffb   Thumb Code     6  ipc.o(i.rt_mutex_take)
    rt_object_allocate                       0x08003001   Thumb Code   134  object.o(i.rt_object_allocate)
    rt_object_delete                         0x080030d1   Thumb Code    70  object.o(i.rt_object_delete)
    rt_object_detach                         0x0800315d   Thumb Code    46  object.o(i.rt_object_detach)
    rt_object_get_information                0x080031a5   Thumb Code    30  object.o(i.rt_object_get_information)
    rt_object_get_type                       0x080031c9   Thumb Code    26  object.o(i.rt_object_get_type)
    rt_object_init                           0x080031fd   Thumb Code   118  object.o(i.rt_object_init)
    rt_object_is_systemobject                0x080032a1   Thumb Code    32  object.o(i.rt_object_is_systemobject)
    rt_schedule                              0x080032d9   Thumb Code   194  scheduler.o(i.rt_schedule)
    rt_schedule_insert_thread                0x080033a5   Thumb Code   122  scheduler.o(i.rt_schedule_insert_thread)
    rt_schedule_remove_thread                0x08003441   Thumb Code    78  scheduler.o(i.rt_schedule_remove_thread)
    rt_set_errno                             0x080034b1   Thumb Code    26  kservice.o(i.rt_set_errno)
    rt_show_version                          0x080034d1   Thumb Code    42  kservice.o(i.rt_show_version)
    rt_smem_alloc                            0x08003595   Thumb Code   320  mem.o(i.rt_smem_alloc)
    rt_smem_free                             0x08003789   Thumb Code   198  mem.o(i.rt_smem_free)
    rt_smem_init                             0x08003925   Thumb Code   144  mem.o(i.rt_smem_init)
    rt_snprintf                              0x080039f9   Thumb Code    18  kservice.o(i.rt_snprintf)
    rt_soft_timer_check                      0x08003a0d   Thumb Code   152  timer.o(i.rt_soft_timer_check)
    rt_strncpy                               0x08003aa9   Thumb Code    38  kservice.o(i.rt_strncpy)
    rt_system_heap_init                      0x08003ad1   Thumb Code    58  kservice.o(i.rt_system_heap_init)
    rt_system_scheduler_init                 0x08003b41   Thumb Code    30  scheduler.o(i.rt_system_scheduler_init)
    rt_system_scheduler_start                0x08003b69   Thumb Code    36  scheduler.o(i.rt_system_scheduler_start)
    rt_system_timer_init                     0x08003b91   Thumb Code     8  timer.o(i.rt_system_timer_init)
    rt_system_timer_thread_init              0x08003b9d   Thumb Code    46  timer.o(i.rt_system_timer_thread_init)
    rt_thread_control                        0x08003be1   Thumb Code   164  thread.o(i.rt_thread_control)
    rt_thread_create                         0x08003ca1   Thumb Code    72  thread.o(i.rt_thread_create)
    rt_thread_defunct_dequeue                0x08003ce9   Thumb Code    44  idle.o(i.rt_thread_defunct_dequeue)
    rt_thread_defunct_enqueue                0x08003d19   Thumb Code    18  idle.o(i.rt_thread_defunct_enqueue)
    rt_thread_delay                          0x08003d31   Thumb Code     4  thread.o(i.rt_thread_delay)
    rt_thread_delete                         0x08003d35   Thumb Code   146  thread.o(i.rt_thread_delete)
    rt_thread_detach                         0x08003e21   Thumb Code   146  thread.o(i.rt_thread_detach)
    rt_thread_idle_init                      0x08003f01   Thumb Code    54  idle.o(i.rt_thread_idle_init)
    rt_thread_init                           0x08003f49   Thumb Code    84  thread.o(i.rt_thread_init)
    rt_thread_resume                         0x08003fd5   Thumb Code    92  thread.o(i.rt_thread_resume)
    rt_thread_self                           0x0800404d   Thumb Code     6  thread.o(i.rt_thread_self)
    rt_thread_sleep                          0x08004059   Thumb Code   246  thread.o(i.rt_thread_sleep)
    rt_thread_startup                        0x08004201   Thumb Code    96  thread.o(i.rt_thread_startup)
    rt_thread_suspend_with_flag              0x080042b9   Thumb Code   204  thread.o(i.rt_thread_suspend_with_flag)
    rt_tick_get                              0x080043d9   Thumb Code     6  clock.o(i.rt_tick_get)
    rt_tick_increase                         0x080043e5   Thumb Code    68  clock.o(i.rt_tick_increase)
    rt_timer_check                           0x0800442d   Thumb Code   136  timer.o(i.rt_timer_check)
    rt_timer_control                         0x080044b9   Thumb Code   158  timer.o(i.rt_timer_control)
    rt_timer_detach                          0x080045d5   Thumb Code    96  timer.o(i.rt_timer_detach)
    rt_timer_init                            0x080046b5   Thumb Code    92  timer.o(i.rt_timer_init)
    rt_timer_start                           0x08004755   Thumb Code   212  timer.o(i.rt_timer_start)
    rt_timer_stop                            0x08004885   Thumb Code    88  timer.o(i.rt_timer_stop)
    rt_vsnprintf                             0x08004931   Thumb Code   648  kservice.o(i.rt_vsnprintf)
    rtthread_startup                         0x08004bd7   Thumb Code    42  components.o(i.rtthread_startup)
    AHBPrescTable                            0x08004c40   Data          16  system_stm32l4xx.o(.constdata)
    MSIRangeTable                            0x08004c50   Data          48  system_stm32l4xx.o(.constdata)
    APBPrescTable                            0x08004c80   Data           8  system_stm32l4xx.o(.constdata)
    __rt_init_rti_start                      0x080054e4   Data           4  components.o(.rti_fn.0)
    __rt_init_rti_board_start                0x080054e8   Data           4  components.o(.rti_fn.0.end)
    __rt_init_rti_board_end                  0x080054ec   Data           4  components.o(.rti_fn.1.end)
    __rt_init_rti_end                        0x080054f0   Data           4  components.o(.rti_fn.6.end)
    Region$$Table$$Base                      0x080054f4   Number         0  anon$$obj.o(Region$$Table)
    Region$$Table$$Limit                     0x08005514   Number         0  anon$$obj.o(Region$$Table)
    uwTickFreq                               0x20000000   Data           1  stm32l4xx_hal.o(.data)
    uwTickPrio                               0x20000004   Data           4  stm32l4xx_hal.o(.data)
    uwTick                                   0x20000008   Data           4  stm32l4xx_hal.o(.data)
    SystemCoreClock                          0x2000000c   Data           4  system_stm32l4xx.o(.data)
    rt_interrupt_from_thread                 0x20000014   Data           4  cpuport.o(.data)
    rt_interrupt_to_thread                   0x20000018   Data           4  cpuport.o(.data)
    rt_thread_switch_interrupt_flag          0x2000001c   Data           4  cpuport.o(.data)
    rt_interrupt_nest                        0x2000002c   Data           1  irq.o(.data)
    rt_assert_hook                           0x20000044   Data           4  kservice.o(.data)
    rt_current_priority                      0x20000128   Data           1  scheduler.o(.data)
    rt_current_thread                        0x2000012c   Data           4  scheduler.o(.data)
    rt_thread_ready_priority_group           0x20000130   Data           4  scheduler.o(.data)
    huart1                                   0x2000014c   Data         132  usart.o(.bss)
    rt_thread_priority_table                 0x20000498   Data         256  scheduler.o(.bss)
    Image$$RW_IRAM1$$ZI$$Limit               0x20000c28   Number         0  anon$$obj.o ABSOLUTE
    __initial_sp                             0x20000c28   Data           0  startup_stm32l475xx.o(STACK)



==============================================================================

Memory Map of the image

  Image Entry point : 0x08000189

  Load Region LR_IROM1 (Base: 0x08000000, Size: 0x00005660, Max: 0x00080000, ABSOLUTE, COMPRESSED[0x000055a8])

    Execution Region ER_IROM1 (Exec base: 0x08000000, Load base: 0x08000000, Size: 0x00005514, Max: 0x00080000, ABSOLUTE)

    Exec Addr    Load Addr    Size         Type   Attr      Idx    E Section Name        Object

    0x08000000   0x08000000   0x00000188   Data   RO            3    RESET               startup_stm32l475xx.o
    0x08000188   0x08000188   0x00000000   Code   RO         4513  * .ARM.Collect$$$$00000000  mc_w.l(entry.o)
    0x08000188   0x08000188   0x00000004   Code   RO         4520    .ARM.Collect$$$$00000001  mc_w.l(entry2.o)
    0x0800018c   0x0800018c   0x00000004   Code   RO         4523    .ARM.Collect$$$$00000004  mc_w.l(entry5.o)
    0x08000190   0x08000190   0x00000000   Code   RO         4525    .ARM.Collect$$$$00000008  mc_w.l(entry7b.o)
    0x08000190   0x08000190   0x00000000   Code   RO         4527    .ARM.Collect$$$$0000000A  mc_w.l(entry8b.o)
    0x08000190   0x08000190   0x00000008   Code   RO         4528    .ARM.Collect$$$$0000000B  mc_w.l(entry9a.o)
    0x08000198   0x08000198   0x00000004   Code   RO         4535    .ARM.Collect$$$$0000000E  mc_w.l(entry12b.o)
    0x0800019c   0x0800019c   0x00000000   Code   RO         4530    .ARM.Collect$$$$0000000F  mc_w.l(entry10a.o)
    0x0800019c   0x0800019c   0x00000000   Code   RO         4532    .ARM.Collect$$$$00000011  mc_w.l(entry11a.o)
    0x0800019c   0x0800019c   0x00000004   Code   RO         4521    .ARM.Collect$$$$00002712  mc_w.l(entry2.o)
    0x080001a0   0x080001a0   0x00000010   Code   RO         2943    .emb_text           cpuport.o
    0x080001b0   0x080001b0   0x00000024   Code   RO            4    .text               startup_stm32l475xx.o
    0x080001d4   0x080001d4   0x00000148   Code   RO         2939    .text               context_rvds.o
    0x0800031c   0x0800031c   0x00000068   Code   RO         4516    .text               mc_w.l(uldiv.o)
    0x08000384   0x08000384   0x00000024   Code   RO         4518    .text               mc_w.l(memseta.o)
    0x080003a8   0x080003a8   0x0000001e   Code   RO         4536    .text               mc_w.l(llshl.o)
    0x080003c6   0x080003c6   0x00000020   Code   RO         4538    .text               mc_w.l(llushr.o)
    0x080003e6   0x080003e6   0x00000002   PAD
    0x080003e8   0x080003e8   0x00000024   Code   RO         4540    .text               mc_w.l(init.o)
    0x0800040c   0x0800040c   0x00000056   Code   RO         4550    .text               mc_w.l(__dczerorl2.o)
    0x08000462   0x08000462   0x0000000a   Code   RO         3031    i.$Sub$$main        components.o
    0x0800046c   0x0800046c   0x00000002   Code   RO          252    i.BusFault_Handler  stm32l4xx_it.o
    0x0800046e   0x0800046e   0x00000002   Code   RO          253    i.DebugMon_Handler  stm32l4xx_it.o
    0x08000470   0x08000470   0x00000004   Code   RO           13    i.Error_Handler     main.o
    0x08000474   0x08000474   0x0000021e   Code   RO         2155    i.HAL_GPIO_Init     stm32l4xx_hal_gpio.o
    0x08000692   0x08000692   0x00000010   Code   RO         2158    i.HAL_GPIO_TogglePin  stm32l4xx_hal_gpio.o
    0x080006a2   0x080006a2   0x0000000a   Code   RO         2159    i.HAL_GPIO_WritePin  stm32l4xx_hal_gpio.o
    0x080006ac   0x080006ac   0x0000000c   Code   RO          937    i.HAL_GetTick       stm32l4xx_hal.o
    0x080006b8   0x080006b8   0x00000010   Code   RO          943    i.HAL_IncTick       stm32l4xx_hal.o
    0x080006c8   0x080006c8   0x0000001e   Code   RO          944    i.HAL_Init          stm32l4xx_hal.o
    0x080006e6   0x080006e6   0x00000002   PAD
    0x080006e8   0x080006e8   0x00000044   Code   RO          945    i.HAL_InitTick      stm32l4xx_hal.o
    0x0800072c   0x0800072c   0x0000002c   Code   RO          327    i.HAL_MspInit       stm32l4xx_hal_msp.o
    0x08000758   0x08000758   0x00000040   Code   RO         2708    i.HAL_NVIC_SetPriority  stm32l4xx_hal_cortex.o
    0x08000798   0x08000798   0x00000024   Code   RO         2709    i.HAL_NVIC_SetPriorityGrouping  stm32l4xx_hal_cortex.o
    0x080007bc   0x080007bc   0x00000068   Code   RO         2446    i.HAL_PWREx_ControlVoltageScaling  stm32l4xx_hal_pwr_ex.o
    0x08000824   0x08000824   0x00000010   Code   RO         2477    i.HAL_PWREx_GetVoltageRange  stm32l4xx_hal_pwr_ex.o
    0x08000834   0x08000834   0x000003ae   Code   RO         1808    i.HAL_RCCEx_PeriphCLKConfig  stm32l4xx_hal_rcc_ex.o
    0x08000be2   0x08000be2   0x00000002   PAD
    0x08000be4   0x08000be4   0x00000144   Code   RO         1687    i.HAL_RCC_ClockConfig  stm32l4xx_hal_rcc.o
    0x08000d28   0x08000d28   0x00000024   Code   RO         1693    i.HAL_RCC_GetPCLK1Freq  stm32l4xx_hal_rcc.o
    0x08000d4c   0x08000d4c   0x00000024   Code   RO         1694    i.HAL_RCC_GetPCLK2Freq  stm32l4xx_hal_rcc.o
    0x08000d70   0x08000d70   0x000000a4   Code   RO         1696    i.HAL_RCC_GetSysClockFreq  stm32l4xx_hal_rcc.o
    0x08000e14   0x08000e14   0x00000518   Code   RO         1699    i.HAL_RCC_OscConfig  stm32l4xx_hal_rcc.o
    0x0800132c   0x0800132c   0x00000028   Code   RO         2713    i.HAL_SYSTICK_Config  stm32l4xx_hal_cortex.o
    0x08001354   0x08001354   0x00000066   Code   RO          479    i.HAL_UART_Init     stm32l4xx_hal_uart.o
    0x080013ba   0x080013ba   0x00000002   PAD
    0x080013bc   0x080013bc   0x00000080   Code   RO          211    i.HAL_UART_MspInit  usart.o
    0x0800143c   0x0800143c   0x000000b6   Code   RO          488    i.HAL_UART_Transmit  stm32l4xx_hal_uart.o
    0x080014f2   0x080014f2   0x00000002   PAD
    0x080014f4   0x080014f4   0x0000007c   Code   RO          186    i.MX_GPIO_Init      gpio.o
    0x08001570   0x08001570   0x0000003c   Code   RO          212    i.MX_USART1_UART_Init  usart.o
    0x080015ac   0x080015ac   0x00000002   Code   RO          255    i.MemManage_Handler  stm32l4xx_it.o
    0x080015ae   0x080015ae   0x00000002   Code   RO          256    i.NMI_Handler       stm32l4xx_it.o
    0x080015b0   0x080015b0   0x0000012c   Code   RO         1812    i.RCCEx_PLLSAI1_Config  stm32l4xx_hal_rcc_ex.o
    0x080016dc   0x080016dc   0x00000108   Code   RO         1813    i.RCCEx_PLLSAI2_Config  stm32l4xx_hal_rcc_ex.o
    0x080017e4   0x080017e4   0x0000007c   Code   RO         1700    i.RCC_SetFlashLatencyFromMSIRange  stm32l4xx_hal_rcc.o
    0x08001860   0x08001860   0x00000002   Code   RO          258    i.SVC_Handler       stm32l4xx_it.o
    0x08001862   0x08001862   0x00000016   Code   RO          351    i.SysTick_Handler   board.o
    0x08001878   0x08001878   0x0000006e   Code   RO          352    i.SystemClock_Config  board.o
    0x080018e6   0x080018e6   0x00000002   PAD
    0x080018e8   0x080018e8   0x00000010   Code   RO         2905    i.SystemInit        system_stm32l4xx.o
    0x080018f8   0x080018f8   0x000000c8   Code   RO          493    i.UART_AdvFeatureConfig  stm32l4xx_hal_uart.o
    0x080019c0   0x080019c0   0x0000005c   Code   RO          494    i.UART_CheckIdleState  stm32l4xx_hal_uart.o
    0x08001a1c   0x08001a1c   0x00000248   Code   RO          509    i.UART_SetConfig    stm32l4xx_hal_uart.o
    0x08001c64   0x08001c64   0x000000c6   Code   RO          514    i.UART_WaitOnFlagUntilTimeout  stm32l4xx_hal_uart.o
    0x08001d2a   0x08001d2a   0x00000002   Code   RO          260    i.UsageFault_Handler  stm32l4xx_it.o
    0x08001d2c   0x08001d2c   0x00000020   Code   RO         2715    i.__NVIC_SetPriority  stm32l4xx_hal_cortex.o
    0x08001d4c   0x08001d4c   0x0000000e   Code   RO         4544    i.__scatterload_copy  mc_w.l(handlers.o)
    0x08001d5a   0x08001d5a   0x00000002   Code   RO         4545    i.__scatterload_null  mc_w.l(handlers.o)
    0x08001d5c   0x08001d5c   0x0000000e   Code   RO         4546    i.__scatterload_zeroinit  mc_w.l(handlers.o)
    0x08001d6a   0x08001d6a   0x00000002   PAD
    0x08001d6c   0x08001d6c   0x00000020   Code   RO         3726    i._heap_lock        kservice.o
    0x08001d8c   0x08001d8c   0x0000003c   Code   RO         3727    i._heap_unlock      kservice.o
    0x08001dc8   0x08001dc8   0x0000006c   Code   RO         3240    i._ipc_list_suspend  ipc.o
    0x08001e34   0x08001e34   0x00000286   Code   RO         3246    i._rt_mutex_take    ipc.o
    0x080020ba   0x080020ba   0x00000002   PAD
    0x080020bc   0x080020bc   0x00000024   Code   RO         4186    i._scheduler_get_highest_priority_thread  scheduler.o
    0x080020e0   0x080020e0   0x000000b8   Code   RO         4187    i._scheduler_stack_check  scheduler.o
    0x08002198   0x08002198   0x00000038   Code   RO         4271    i._thread_exit      thread.o
    0x080021d0   0x080021d0   0x00000020   Code   RO         3248    i._thread_get_mutex_priority  ipc.o
    0x080021f0   0x080021f0   0x000000c0   Code   RO         4272    i._thread_init      thread.o
    0x080022b0   0x080022b0   0x00000080   Code   RO         4273    i._thread_timeout   thread.o
    0x08002330   0x08002330   0x0000006c   Code   RO         3249    i._thread_update_priority  ipc.o
    0x0800239c   0x0800239c   0x0000001c   Code   RO         4398    i._timer_init       timer.o
    0x080023b8   0x080023b8   0x00000026   Code   RO         4399    i._timer_list_next_timeout  timer.o
    0x080023de   0x080023de   0x00000006   Code   RO         4400    i._timer_remove     timer.o
    0x080023e4   0x080023e4   0x0000003c   Code   RO         4401    i._timer_thread_entry  timer.o
    0x08002420   0x08002420   0x0000004c   Code   RO         3185    i.idle_thread_entry  idle.o
    0x0800246c   0x0800246c   0x00000028   Code   RO           15    i.led_thread_entry  main.o
    0x08002494   0x08002494   0x00000070   Code   RO           16    i.main              main.o
    0x08002504   0x08002504   0x0000000e   Code   RO         3032    i.main_thread_entry  components.o
    0x08002512   0x08002512   0x00000002   PAD
    0x08002514   0x08002514   0x000000d8   Code   RO         4000    i.plug_holes        mem.o
    0x080025ec   0x080025ec   0x0000012a   Code   RO         3729    i.print_number      kservice.o
    0x08002716   0x08002716   0x00000002   PAD
    0x08002718   0x08002718   0x00000050   Code   RO         3033    i.rt_application_init  components.o
    0x08002768   0x08002768   0x0000006c   Code   RO         3730    i.rt_assert_handler  kservice.o
    0x080027d4   0x080027d4   0x0000001c   Code   RO         3035    i.rt_components_init  components.o
    0x080027f0   0x080027f0   0x0000000c   Code   RO         4188    i.rt_critical_level  scheduler.o
    0x080027fc   0x080027fc   0x000000b0   Code   RO         3112    i.rt_device_write   device.o
    0x080028ac   0x080028ac   0x0000001c   Code   RO         4189    i.rt_enter_critical  scheduler.o
    0x080028c8   0x080028c8   0x00000038   Code   RO         4190    i.rt_exit_critical  scheduler.o
    0x08002900   0x08002900   0x0000001e   Code   RO         3735    i.rt_free           kservice.o
    0x0800291e   0x0800291e   0x00000002   PAD
    0x08002920   0x08002920   0x00000028   Code   RO          353    i.rt_hw_board_init  board.o
    0x08002948   0x08002948   0x0000005c   Code   RO          354    i.rt_hw_console_output  board.o
    0x080029a4   0x080029a4   0x00000210   Code   RO         2947    i.rt_hw_hard_fault_exception  cpuport.o
    0x08002bb4   0x08002bb4   0x0000003c   Code   RO         2948    i.rt_hw_stack_init  cpuport.o
    0x08002bf0   0x08002bf0   0x0000001c   Code   RO         3699    i.rt_interrupt_enter  irq.o
    0x08002c0c   0x08002c0c   0x00000018   Code   RO         3700    i.rt_interrupt_get_nest  irq.o
    0x08002c24   0x08002c24   0x0000001c   Code   RO         3701    i.rt_interrupt_leave  irq.o
    0x08002c40   0x08002c40   0x00000040   Code   RO         3741    i.rt_kprintf        kservice.o
    0x08002c80   0x08002c80   0x0000000e   Code   RO         3259    i.rt_list_insert_after  ipc.o
    0x08002c8e   0x08002c8e   0x0000000e   Code   RO         4097    i.rt_list_insert_after  object.o
    0x08002c9c   0x08002c9c   0x0000000e   Code   RO         4402    i.rt_list_insert_after  timer.o
    0x08002caa   0x08002caa   0x0000000e   Code   RO         3260    i.rt_list_insert_before  ipc.o
    0x08002cb8   0x08002cb8   0x00000012   Code   RO         3261    i.rt_list_remove    ipc.o
    0x08002cca   0x08002cca   0x00000012   Code   RO         4098    i.rt_list_remove    object.o
    0x08002cdc   0x08002cdc   0x00000012   Code   RO         4274    i.rt_list_remove    thread.o
    0x08002cee   0x08002cee   0x00000012   Code   RO         4403    i.rt_list_remove    timer.o
    0x08002d00   0x08002d00   0x00000024   Code   RO         3743    i.rt_malloc         kservice.o
    0x08002d24   0x08002d24   0x00000056   Code   RO         3750    i.rt_memset         kservice.o
    0x08002d7a   0x08002d7a   0x00000056   Code   RO         3296    i.rt_mutex_drop_thread  ipc.o
    0x08002dd0   0x08002dd0   0x0000005c   Code   RO         3298    i.rt_mutex_init     ipc.o
    0x08002e2c   0x08002e2c   0x000001ce   Code   RO         3299    i.rt_mutex_release  ipc.o
    0x08002ffa   0x08002ffa   0x00000006   Code   RO         3301    i.rt_mutex_take     ipc.o
    0x08003000   0x08003000   0x000000d0   Code   RO         4099    i.rt_object_allocate  object.o
    0x080030d0   0x080030d0   0x0000008c   Code   RO         4100    i.rt_object_delete  object.o
    0x0800315c   0x0800315c   0x00000048   Code   RO         4101    i.rt_object_detach  object.o
    0x080031a4   0x080031a4   0x00000024   Code   RO         4103    i.rt_object_get_information  object.o
    0x080031c8   0x080031c8   0x00000034   Code   RO         4106    i.rt_object_get_type  object.o
    0x080031fc   0x080031fc   0x000000a4   Code   RO         4107    i.rt_object_init    object.o
    0x080032a0   0x080032a0   0x00000038   Code   RO         4108    i.rt_object_is_systemobject  object.o
    0x080032d8   0x080032d8   0x000000cc   Code   RO         4191    i.rt_schedule       scheduler.o
    0x080033a4   0x080033a4   0x0000009c   Code   RO         4192    i.rt_schedule_insert_thread  scheduler.o
    0x08003440   0x08003440   0x00000070   Code   RO         4193    i.rt_schedule_remove_thread  scheduler.o
    0x080034b0   0x080034b0   0x00000020   Code   RO         3752    i.rt_set_errno      kservice.o
    0x080034d0   0x080034d0   0x000000c4   Code   RO         3753    i.rt_show_version   kservice.o
    0x08003594   0x08003594   0x000001f4   Code   RO         4001    i.rt_smem_alloc     mem.o
    0x08003788   0x08003788   0x0000019c   Code   RO         4003    i.rt_smem_free      mem.o
    0x08003924   0x08003924   0x000000d4   Code   RO         4004    i.rt_smem_init      mem.o
    0x080039f8   0x080039f8   0x00000012   Code   RO         3754    i.rt_snprintf       kservice.o
    0x08003a0a   0x08003a0a   0x00000002   PAD
    0x08003a0c   0x08003a0c   0x0000009c   Code   RO         4404    i.rt_soft_timer_check  timer.o
    0x08003aa8   0x08003aa8   0x00000026   Code   RO         3763    i.rt_strncpy        kservice.o
    0x08003ace   0x08003ace   0x00000002   PAD
    0x08003ad0   0x08003ad0   0x00000070   Code   RO         3766    i.rt_system_heap_init  kservice.o
    0x08003b40   0x08003b40   0x00000028   Code   RO         4194    i.rt_system_scheduler_init  scheduler.o
    0x08003b68   0x08003b68   0x00000028   Code   RO         4195    i.rt_system_scheduler_start  scheduler.o
    0x08003b90   0x08003b90   0x0000000c   Code   RO         4405    i.rt_system_timer_init  timer.o
    0x08003b9c   0x08003b9c   0x00000044   Code   RO         4406    i.rt_system_timer_thread_init  timer.o
    0x08003be0   0x08003be0   0x000000c0   Code   RO         4275    i.rt_thread_control  thread.o
    0x08003ca0   0x08003ca0   0x00000048   Code   RO         4276    i.rt_thread_create  thread.o
    0x08003ce8   0x08003ce8   0x00000030   Code   RO         3186    i.rt_thread_defunct_dequeue  idle.o
    0x08003d18   0x08003d18   0x00000018   Code   RO         3187    i.rt_thread_defunct_enqueue  idle.o
    0x08003d30   0x08003d30   0x00000004   Code   RO         4277    i.rt_thread_delay   thread.o
    0x08003d34   0x08003d34   0x000000ec   Code   RO         4279    i.rt_thread_delete  thread.o
    0x08003e20   0x08003e20   0x000000e0   Code   RO         4280    i.rt_thread_detach  thread.o
    0x08003f00   0x08003f00   0x00000048   Code   RO         3190    i.rt_thread_idle_init  idle.o
    0x08003f48   0x08003f48   0x0000008a   Code   RO         4282    i.rt_thread_init    thread.o
    0x08003fd2   0x08003fd2   0x00000002   PAD
    0x08003fd4   0x08003fd4   0x00000078   Code   RO         4284    i.rt_thread_resume  thread.o
    0x0800404c   0x0800404c   0x0000000c   Code   RO         4285    i.rt_thread_self    thread.o
    0x08004058   0x08004058   0x000001a8   Code   RO         4286    i.rt_thread_sleep   thread.o
    0x08004200   0x08004200   0x000000b8   Code   RO         4287    i.rt_thread_startup  thread.o
    0x080042b8   0x080042b8   0x00000120   Code   RO         4289    i.rt_thread_suspend_with_flag  thread.o
    0x080043d8   0x080043d8   0x0000000c   Code   RO         2991    i.rt_tick_get       clock.o
    0x080043e4   0x080043e4   0x00000048   Code   RO         2993    i.rt_tick_increase  clock.o
    0x0800442c   0x0800442c   0x0000008c   Code   RO         4407    i.rt_timer_check    timer.o
    0x080044b8   0x080044b8   0x0000011c   Code   RO         4408    i.rt_timer_control  timer.o
    0x080045d4   0x080045d4   0x000000e0   Code   RO         4411    i.rt_timer_detach   timer.o
    0x080046b4   0x080046b4   0x000000a0   Code   RO         4412    i.rt_timer_init     timer.o
    0x08004754   0x08004754   0x00000130   Code   RO         4414    i.rt_timer_start    timer.o
    0x08004884   0x08004884   0x000000ac   Code   RO         4415    i.rt_timer_stop     timer.o
    0x08004930   0x08004930   0x00000296   Code   RO         3767    i.rt_vsnprintf      kservice.o
    0x08004bc6   0x08004bc6   0x00000004   Code   RO         3036    i.rti_board_end     components.o
    0x08004bca   0x08004bca   0x00000004   Code   RO         3037    i.rti_board_start   components.o
    0x08004bce   0x08004bce   0x00000004   Code   RO         3038    i.rti_end           components.o
    0x08004bd2   0x08004bd2   0x00000004   Code   RO         3039    i.rti_start         components.o
    0x08004bd6   0x08004bd6   0x0000002a   Code   RO         3040    i.rtthread_startup  components.o
    0x08004c00   0x08004c00   0x00000028   Code   RO         3769    i.skip_atoi         kservice.o
    0x08004c28   0x08004c28   0x00000015   Data   RO          355    .constdata          board.o
    0x08004c3d   0x08004c3d   0x00000003   PAD
    0x08004c40   0x08004c40   0x00000040   Data   RO         2906    .constdata          system_stm32l4xx.o
    0x08004c80   0x08004c80   0x00000008   Data   RO         2907    .constdata          system_stm32l4xx.o
    0x08004c88   0x08004c88   0x00000014   Data   RO         3041    .constdata          components.o
    0x08004c9c   0x08004c9c   0x000000ba   Data   RO         3113    .constdata          device.o
    0x08004d56   0x08004d56   0x00000222   Data   RO         3315    .constdata          ipc.o
    0x08004f78   0x08004f78   0x00000043   Data   RO         3772    .constdata          kservice.o
    0x08004fbb   0x08004fbb   0x00000045   Data   RO         4006    .constdata          mem.o
    0x08005000   0x08005000   0x00000080   Data   RO         4109    .constdata          object.o
    0x08005080   0x08005080   0x0000004b   Data   RO         4197    .constdata          scheduler.o
    0x080050cb   0x080050cb   0x000000e1   Data   RO         4291    .constdata          thread.o
    0x080051ac   0x080051ac   0x0000006c   Data   RO         4417    .constdata          timer.o
    0x08005218   0x08005218   0x00000043   Data   RO         3316    .conststring        ipc.o
    0x0800525b   0x0800525b   0x00000001   PAD
    0x0800525c   0x0800525c   0x00000058   Data   RO         3773    .conststring        kservice.o
    0x080052b4   0x080052b4   0x000001a8   Data   RO         4007    .conststring        mem.o
    0x0800545c   0x0800545c   0x00000086   Data   RO         4292    .conststring        thread.o
    0x080054e2   0x080054e2   0x00000002   PAD
    0x080054e4   0x080054e4   0x00000004   Data   RO         3042    .rti_fn.0           components.o
    0x080054e8   0x080054e8   0x00000004   Data   RO         3043    .rti_fn.0.end       components.o
    0x080054ec   0x080054ec   0x00000004   Data   RO         3044    .rti_fn.1.end       components.o
    0x080054f0   0x080054f0   0x00000004   Data   RO         3045    .rti_fn.6.end       components.o
    0x080054f4   0x080054f4   0x00000020   Data   RO         4542    Region$$Table       anon$$obj.o


    Execution Region RW_IRAM2 (Exec base: 0x10000000, Load base: 0x080055a8, Size: 0x00000000, Max: 0x00008000, ABSOLUTE)

    **** No section assigned to this execution region ****


    Execution Region RW_IRAM1 (Exec base: 0x20000000, Load base: 0x08005514, Size: 0x00000c28, Max: 0x00018000, ABSOLUTE, COMPRESSED[0x00000094])

    Exec Addr    Load Addr    Size         Type   Attr      Idx    E Section Name        Object

    0x20000000   COMPRESSED   0x0000000c   Data   RW          961    .data               stm32l4xx_hal.o
    0x2000000c   COMPRESSED   0x00000004   Data   RW         2908    .data               system_stm32l4xx.o
    0x20000010   COMPRESSED   0x00000004   Data   RW         2950    .data               cpuport.o
    0x20000014   COMPRESSED   0x00000004   Data   RW         2951    .data               cpuport.o
    0x20000018   COMPRESSED   0x00000004   Data   RW         2952    .data               cpuport.o
    0x2000001c   COMPRESSED   0x00000004   Data   RW         2953    .data               cpuport.o
    0x20000020   COMPRESSED   0x00000004   Data   RW         2995    .data               clock.o
    0x20000024   COMPRESSED   0x00000008   Data   RW         3193    .data               idle.o
    0x2000002c   COMPRESSED   0x00000001   Data   RW         3702    .data               irq.o
    0x2000002d   COMPRESSED   0x00000003   PAD
    0x20000030   COMPRESSED   0x00000048   Data   RW         3774    .data               kservice.o
    0x20000078   COMPRESSED   0x000000b0   Data   RW         4110    .data               object.o
    0x20000128   COMPRESSED   0x0000000c   Data   RW         4198    .data               scheduler.o
    0x20000134   COMPRESSED   0x00000018   Data   RW         4418    .data               timer.o
    0x2000014c        -       0x00000084   Zero   RW          213    .bss                usart.o
    0x200001d0        -       0x0000019c   Zero   RW         3192    .bss                idle.o
    0x2000036c        -       0x0000012c   Zero   RW         3770    .bss                kservice.o
    0x20000498        -       0x00000100   Zero   RW         4196    .bss                scheduler.o
    0x20000598        -       0x0000028c   Zero   RW         4416    .bss                timer.o
    0x20000824   COMPRESSED   0x00000004   PAD
    0x20000828        -       0x00000400   Zero   RW            1    STACK               startup_stm32l475xx.o


==============================================================================

Image component sizes


      Code (inc. data)   RO Data    RW Data    ZI Data      Debug   Object Name

       264         36         21          0          0       2401   board.o
        84         10          0          4          0       1761   clock.o
       190         40         36          0          0       5645   components.o
       328         28          0          0          0        852   context_rvds.o
       604        344          0         16          0       4634   cpuport.o
       176         80        186          0          0       6470   device.o
       124          8          0          0          0        999   gpio.o
       220         32          0          8        412       6114   idle.o
      1586        338        613          0          0      39758   ipc.o
        80         18          0          1          0       2406   irq.o
      1812        332        155         72        300      15495   kservice.o
       156         68          0          0          0     800562   main.o
      1340        550        493          0          0       6669   mem.o
       760        272        128        176          0       8630   object.o
       868        224         75         12        256       8132   scheduler.o
        36          8        392          0       1024        856   startup_stm32l475xx.o
       126         20          0         12          0      13897   stm32l4xx_hal.o
       172         14          0          0          0      33254   stm32l4xx_hal_cortex.o
       568         36          0          0          0       3085   stm32l4xx_hal_gpio.o
        44          6          0          0          0        894   stm32l4xx_hal_msp.o
       120         20          0          0          0       1410   stm32l4xx_hal_pwr_ex.o
      1988         98          0          0          0       7080   stm32l4xx_hal_rcc.o
      1506         44          0          0          0       4148   stm32l4xx_hal_rcc_ex.o
      1358         62          0          0          0       6701   stm32l4xx_hal_uart.o
        12          0          0          0          0       2911   stm32l4xx_it.o
        16          4         72          4          0       1249   system_stm32l4xx.o
      2288        714        359          0          0      16090   thread.o
      1684        546        108         24        652      15730   timer.o
       188         18          0          0        132       1850   usart.o

    ----------------------------------------------------------------------
     18722       3970       2676        332       2780    1019683   Object Totals
         0          0         32          0          0          0   (incl. Generated)
        24          0          6          3          4          0   (incl. Padding)

    ----------------------------------------------------------------------

      Code (inc. data)   RO Data    RW Data    ZI Data      Debug   Library Member Name

        86          0          0          0          0          0   __dczerorl2.o
         0          0          0          0          0          0   entry.o
         0          0          0          0          0          0   entry10a.o
         0          0          0          0          0          0   entry11a.o
         4          0          0          0          0          0   entry12b.o
         8          4          0          0          0          0   entry2.o
         4          0          0          0          0          0   entry5.o
         0          0          0          0          0          0   entry7b.o
         0          0          0          0          0          0   entry8b.o
         8          4          0          0          0          0   entry9a.o
        30          0          0          0          0          0   handlers.o
        36          8          0          0          0         68   init.o
        30          0          0          0          0         68   llshl.o
        32          0          0          0          0         68   llushr.o
        36          0          0          0          0        108   memseta.o
       104          0          0          0          0         92   uldiv.o

    ----------------------------------------------------------------------
       382         16          0          0          0        404   Library Totals
         4          0          0          0          0          0   (incl. Padding)

    ----------------------------------------------------------------------

      Code (inc. data)   RO Data    RW Data    ZI Data      Debug   Library Name

       378         16          0          0          0        404   mc_w.l

    ----------------------------------------------------------------------
       382         16          0          0          0        404   Library Totals

    ----------------------------------------------------------------------

==============================================================================


      Code (inc. data)   RO Data    RW Data    ZI Data      Debug   

     19104       3986       2676        332       2780    1006267   Grand Totals
     19104       3986       2676        148       2780    1006267   ELF Image Totals (compressed)
     19104       3986       2676        148          0          0   ROM Totals

==============================================================================

    Total RO  Size (Code + RO Data)                21780 (  21.27kB)
    Total RW  Size (RW Data + ZI Data)              3112 (   3.04kB)
    Total ROM Size (Code + RO Data + RW Data)      21928 (  21.41kB)

==============================================================================

