:020000040800F2
:10000000280C0020B1010008AF150008BD0200084F
:10001000AD1500086D0400082B1D0008000000004D
:10002000000000000000000000000000611800084F
:100030006F040008000000000302000863180008B5
:10004000CB010008CB010008CB010008CB01000860
:10005000CB010008CB010008CB010008CB01000850
:10006000CB010008CB010008CB010008CB01000840
:10007000CB010008CB010008CB010008CB01000830
:10008000CB010008CB010008CB010008CB01000820
:10009000CB010008CB010008CB010008CB01000810
:1000A000CB010008CB010008CB010008CB01000800
:1000B000CB010008CB010008CB010008CB010008F0
:1000C000CB010008CB010008CB010008CB010008E0
:1000D000CB010008CB010008CB010008CB010008D0
:1000E000CB010008CB010008CB010008CB010008C0
:1000F000CB010008CB010008CB010008CB010008B0
:10010000CB010008CB010008CB010008CB0100089F
:10011000CB010008CB010008CB010008CB0100088F
:10012000CB010008CB010008CB010008CB0100087F
:10013000CB010008CB010008CB010008CB0100086F
:10014000CB010008CB010008CB010008CB0100085F
:10015000CB010008CB010008CB010008CB0100084F
:10016000CB010008CB010008CB010008CB0100083F
:10017000CB010008CB0100080000000000000000D7
:10018000CB010008CB010008DFF810D000F02CF9FB
:100190000048004763040008AFF30080280C0020EB
:1001A000002804D090FAA0F0B0FA80F0401C70470C
:1001B0000648804706480047FEE7FEE7FEE7FEE701
:1001C000FEE7FEE7FEE7FEE7FEE7FEE7E9180008C8
:1001D00089010008EFF3108072B6704780F3108831
:1001E0007047444A1368012B04D04FF00103136099
:1001F000414A1060414A116041484FF0805101600E
:100200007047EFF3108272B63A48016851B34FF06D
:10021000000101603848016891B1EFF309811EF0D7
:10022000100F08BF21ED108B21E9F00F4FF00004F3
:100230001EF0100F08BF012441F8044D0068016052
:100240002E490968096808C9B1E8F00F002B18BFEA
:1002500000F05EB881F309884EF0100E002B18BF35
:100260002EF0100E82F310884EF0040E70472349D2
:100270000860EFF3148222F0040282F314881E490E
:100280004FF0000008601B494FF0010008601D4856
:100290001D49D0F8002041EA0201016018484FF0E2
:1002A0008051016019480068006880F3088861B6D1
:1002B00062B6BFF34F8FBFF36F8F70471EF0040F0E
:1002C0000CBFEFF30880EFF3098020E9F00F40F84E
:1002D00004ED40F804ED1EF0040F0CBF80F3088815
:1002E00080F3098800B502F05DFB5DF804EB4EF089
:1002F000040E70471C00002014000020180000208D
:1003000004ED00E020ED00E00000FFFF08ED00E05C
:10031000B1EC088BB1EC08CBFFF79CBF2DE9F05F87
:100320000546002092469B46884606468146402464
:100330001BE0284641464746224600F044F8534613
:100340005A46C01A914110D311461846224600F071
:100350002BF82D1A67EB01084F4622460120002199
:1003600000F022F817EB00094E41201EA4F1010411
:10037000DFDC484631462A46434600F000B830BC30
:10038000BDE8C09FD2B201E000F8012B491EFBD2AC
:1003900070470022F6E710B513460A460446194690
:1003A000FFF7F0FF204610BD202A04DB203A00FAB8
:1003B00002F1002070479140C2F1200320FA03F3BC
:1003C000194390407047202A04DB203A21FA02F0BA
:1003D0000021704721FA02F3D040C2F1200291407F
:1003E0000843194670470000064C074D06E0E068D8
:1003F00040F0010394E8070098471034AC42F6D36C
:10040000FFF7C6FEF45400081455000870B58C18A8
:1004100010F8015B15F0070301D110F8013B2A1118
:1004200006D110F8012B03E010F8016B01F8016B05
:100430005B1EF9D12B0705D40023521E0DD401F801
:10044000013BFAE710F8013BCB1A921C03E013F8CA
:10045000015B01F8015B521EF9D5A142D8D30020FF
:1004600070BD10B504F0B7FB002010BDFEE770476B
:1004700072B6FEE72DE9F04FDFF8EC91002201277C
:10048000A9F1040B85B003254FF00F0C09F1040A04
:10049000ABF1040EE0E000BF07FA02F416EA040331
:1004A0007ED00E7906F00306012E01D0022E1FD158
:1004B00086680096560005FA06F80496009E26EA1D
:1004C00008060096D1F80C80049E08FA06F8009EF3
:1004D00048EA0608C0F80880466891F80480A643F8
:1004E000C8F3001808FA02F848EA0608C0F80480C1
:1004F000D1F804806FEA0806B6070AD1C66AA64397
:10050000C8F3C00494403443C4620C79E443A407A4
:100510000AD0C4684FEA420805FA08F6B4438E6868
:1005200006FA08F62643C6600C7904F00304022C90
:1005300011D1D40800EB84060296D6F82080540727
:10054000E60E0CFA06F428EA04080C69B440029E90
:1005500044EA0804346204685600029605FA06F676
:10056000B4430E7906F00308029E08FA06F848EA3A
:100570000408C0F800804C6814F4403F6BD03B4C3A
:10058000266E46F001062666246E22F0030604F06D
:1005900001040094364C34440294A468960700E0A9
:1005A00059E04FEA16780CFA08F6B443B0F1904FD0
:1005B00004D0304EB04203D101261BE0002619E0E2
:1005C0002D4EB04201D1022614E02C4EB04201D192
:1005D00003260FE02A4EB04201D104260AE0294E3C
:1005E000B04201D1052605E0274EB04201D10626D2
:1005F00000E0072606FA08F62643029CA660D9F812
:1006000000404E46D1F804809C435FEAC82800D5DC
:100610001C433460DAF800405646D1F804809C430D
:100620005FEA882800D51C433460DBF800405E4652
:10063000D1F804809C435FEA883800D51C433460BD
:10064000DEF800407646D1F804809C435FEAC83863
:1006500000D51C433460521C0B681E46D3407FF407
:100660001BAF05B000F012B80804014000100240B2
:10067000000001400004004800080048000C004849
:1006800000100048001400480018004830BCBDE8C5
:10069000C08F426921EA02030A4043EA02418161B4
:1006A00070470AB181617047816270470148806874
:1006B0007047000000000020024881680278114461
:1006C000816070470000002010B50024032000F076
:1006D00063F80F2000F008F808B1012401E000F0F1
:1006E00025F8204610BD000070B50E4E05460024CA
:1006F000307898B14FF47A71B1FBF0F00A4909688B
:10070000B1FBF0F000F012FE40B9102D06D200222D
:100710002946501E00F020F8756000E001242046B4
:1007200070BD0000000000200C000020094808B542
:10073000016E41F001010166016E01F001010091BD
:10074000816D41F080518165806D00F08050009096
:1007500008BD000000100240F0B40E4B1B680C46B0
:10076000C3F30223C3F10705042D00D90425191D85
:10077000072901D2002300E0DB1E012606FA05F15D
:10078000491E214099409E40761E16403143F0BCE0
:1007900001F0CCBA0CED00E0064900F00702086851
:1007A0004FF6FF03184040EA0220034A1043086056
:1007B000704700000CED00E00000FA051649B0F5A6
:1007C000007F0868C0F3412009D0022805D00868DE
:1007D00020F4C06040F48060086000207047012869
:1007E000FBD0086820F4C06040F4007008600B483B
:1007F0003222006850430A4AB0FBF2F0401C00E08D
:10080000401E4A69520501D50028F9D148694005C2
:10081000E3D5032070470000007000400C0000206A
:1008200040420F000248006800F4C06070470000BA
:10083000007000402DE9F84F044600270088E54D80
:100840003E46010504F1200B1DD5606E78B1B0F570
:10085000800F11D0B0F5000F04D0B0F5400F22D0BA
:1008600001270FE0E86840F48030E8601BE00021D9
:10087000201D00F09DFE03E00021584600F02EFFF1
:10088000070010D03E462088C00426D5A06EC0B117
:10089000B0F1807F1AD0B0F1007F0DD0B0F1407F71
:1008A00019D0012718E0D5F88800616E20F44000C7
:1008B0000843C5F88800E6E7E86840F48030E8605F
:1008C00009E00021201D00F073FE03E000215846DE
:1008D00000F004FF0746F7B13E46206880033AD592
:1008E000A86D4FF00008C00009D4A86D40F08050FA
:1008F000A865A86D4FF0010800F080500090DFF867
:10090000D8A2DAF8001041F48071CAF80010FFF79D
:10091000CDFE814610E0D5F88800A16E20F0407031
:100920000843C5F88800D8E7FFF7C0FEA0EB090030
:10093000022801D9032705E0DAF80000C005F3D545
:10094000002F7CD04FEA0706B8F1000F03D0A86D46
:1009500020F08050A8652078C00707D0D5F888001F
:10096000A16B20F003000843C5F8880020788007B9
:1009700007D5D5F88800E16B20F00C000843C5F8D6
:1009800088002078400707D5D5F88800216C20F032
:1009900030000843C5F888002078000707D5D5F84F
:1009A0008800616C20F0C0000843C5F888002078FA
:1009B000C00607D5D5F88800A16C20F44070084324
:1009C000C5F888002078800607D5D5F88800E16C46
:1009D00020F440600843C5F888002088800507D5CA
:1009E000D5F88800E16D20F440200843C5F8880060
:1009F0002088400507D5D5F88800216E20F44010E6
:100A00000843C5F888002078400607D5D5F8880047
:100A1000216D20F440500843C5F888002078000676
:100A200007D5D5F88800616D20F440400843C5F82B
:100A300088002088C00509D5D5F8880000E01CE0B2
:100A4000A16D20F440300843C5F8880020884FF09D
:100A5000006780044FF080684FD5D5F88800E16EBC
:100A600020F040600843C5F88800E06EB8423CD1F1
:100A7000E86840F48010E8603FE0D5F8900010F49A
:100A8000407015D0D4F88410814211D0D5F8900070
:100A9000D5F8901020F4407041F48031C5F89010E2
:100AA000D5F8901021F48031C5F89010C5F8900069
:100AB000C00710D0FFF7FAFD074641F2883906E07B
:100AC000FFF7F4FDC11B494501D903263CE7D5F8E2
:100AD00090008007F4D5D5F89000D4F8841020F465
:100AE00040700843C5F890002EE7404505D101212C
:100AF000201D00F05DFD00B106462068000317D5FB
:100B0000D5F88800216F20F040600843C5F88800C0
:100B1000206FB84204D1E86840F48010E86007E034
:100B2000404505D10121201D00F042FD00B10646DF
:100B30002068400317D5D5F88800616F20F0406029
:100B40000843C5F88800606FB84204D1E86840F4F3
:100B50008010E86007E0404505D10121201D00F02C
:100B600027FD00B10646208840041AD5D5F8880034
:100B7000A16F20F040500843C5F88800A06FB0F185
:100B8000805F03D0B0F1005F05D00AE00221201D94
:100B900000F00EFD03E00221584600F09FFD00B179
:100BA00006462088000407D5D5F88800E16F20F0BC
:100BB00080400843C5F888002068C00307D555F871
:100BC000880FD4F8801020F0004008432860304699
:100BD00000F004B8001002400070004018BCBDE8EE
:100BE000E08F00002DE9F0470F4605006BD0494E1D
:100BF000306800F00700B84209D2306820F00700E2
:100C000038433060306800F00700B8425BD1287884
:100C1000414C80070AD5A868A16801F0F00188421C
:100C200004D9A16821F0F0010143A1602878C00730
:100C30002CD06868032811D0022812D0216898B1FE
:100C4000490500293FDAA16821F003010143A160B1
:100C5000FFF72CFD804641F2883910E021688901B8
:100C6000EFE721688903ECE78907EAE7FFF71EFD54
:100C7000A0EB0801494502D90320BDE8F087A06830
:100C8000696800F00C00B0EB810FEFD12878800785
:100C90000AD5A868A16801F0F001884204D2A168D1
:100CA00021F0F0010143A160306800F00700B84274
:100CB0000BD9306820F0070038433060306800F00E
:100CC0000700B84201D00120D7E72878400705D5B2
:100CD000A068E96820F4E0600843A0602878000775
:100CE00006D5A068296920F4605040EAC100A060E0
:100CF00000F03EF8A168094AC1F30311515C01F00C
:100D00001F01C8400649086006480068BDE8F04772
:100D1000FFF7EABC0020024000100240404C0008EF
:100D20000C0000200400002005480649006889687E
:100D3000054AC1F30221515C01F01F01C840704710
:100D40000C00002000100240804C000805480649B5
:100D500000688968054AC1F3C221515C01F01F0196
:100D6000C84070470C00002000100240804C000872
:100D700070B52549002318468A68CC6812F00C0229
:100D800004F00306214C4FEA640509D00C2A05D073
:100D9000042A32D0082A00D1284670BD012E10D175
:100DA0000B681B0704D4D1F89430C3F3032302E08B
:100DB0000B68C3F30313164E56F82330DAB10C2A2E
:100DC000EBD1C86800F00300022818D0032818D01F
:100DD0001846CA68CB68C2F30212C3F30623434322
:100DE000521CB3FBF2F2C868C0F34160401C4000E3
:100DF000B2FBF0F070BD184670BD204670BD2046B5
:100E0000E7E72846E5E70000001002400024F40070
:100E1000504C00082DE9F84304006FD0FD4DA86840
:100E200000F00C06E86800F003072078C00664D5DF
:100E300076B10C2E01D1012F0AD0A06900282868B4
:100E40007AD040F001002860FFF730FC80465DE07A
:100E50002868800702D5A0690028DED0216A2868AA
:100E6000000703D5286800F0F00004E0D5F89400EE
:100E7000F02202EA1010814216D9084600F0B2FCB6
:100E800000283BD1286840F0080028602868216AC3
:100E900020F0F000084328606868E16920F47F4092
:100EA00040EA0120686016E0286840F008002860E9
:100EB0002868216A20F0F000084328606868E1692A
:100EC00020F47F4040EA0120686026B9206A00F0E3
:100ED00089FC0028D5D1FFF74BFFA968CE4AC1F3A2
:100EE0000311515C01F01F01C840CC490860CC4897
:100EF0000068FFF7F9FB00287ED12EE0CAE000BFB2
:100F0000FFF7D4FBA0EB0800022876D828688007FA
:100F1000F6D5286840F0080028602868216A20F08B
:100F2000F000084328606868E16920F47F4040EAE7
:100F30000120686011E0FFE720F001002860FFF762
:100F4000B5FB804606E000BFFFF7B0FBA0EB080052
:100F50000228DAD828688007F6D42078C00740D065
:100F6000082E18D00C2E01D1032F14D06068B0F5D4
:100F7000803F17D0B0F5A02F286817D020F480301C
:100F80002860286820F4802028606068E0B1FFF7BE
:100F90008DFB804614E02868800322D56068002815
:100FA00078D01EE0286840F48030EDE740F48020DF
:100FB0002860F7E7FFF77AFBA0EB08006428A4D8C5
:100FC00028688003F6D50CE0FFF770FB804605E04B
:100FD000FFF76CFBA0EB0800642896D82868800314
:100FE000F6D4207880073BD5042E11D00C2E01D1E9
:100FF000022F0DD0E06801E086E1D6E000282868E5
:101000001ED040F480702860FFF750FB07460CE0CC
:10101000286840050CD5E0680028C1D008E000BF72
:10102000FFF744FBC01B022893D828684005F7D57A
:101030006868217C20F0F85040EA016068600FE0A9
:1010400020F480702860FFF731FB074605E000BF01
:10105000FFF72CFBC01B0228B1D828684005F7D445
:101060002078000729D560690028D5F8940012D0AF
:1010700040F00100C5F89400FFF718FB074604E0B4
:10108000FFF714FBC01B022899D8D5F894008007FD
:10109000F6D512E000E120F00100C5F89400FFF75A
:1010A00005FB074605E000BFFFF700FBC01B022859
:1010B0007BD8D5F894008007F6D42078400766D511
:1010C000A86D0027C00008D4A86D40F08050A86526
:1010D000A86D012700F08050009052480168C905B2
:1010E00012D40168814641F480710160FFF7DEFA95
:1010F000804605E0FFF7DAFAA0EB0800022854D892
:10110000D9F80000C005F5D5A068012816D005283B
:10111000D5F8900017D020F00100C5F89000D5F860
:10112000900020F0040000BFC5F89000A06841F2D4
:101130008839C0B1FFF7BAFA80460FE0D5F89000C1
:1011400040F00100F0E740F00400C5F89000F5E73A
:10115000FFF7ACFAA0EB0801494526D8D5F8900076
:101160008007F5D50EE0FFF7A1FA804606E000BF44
:10117000FFF79CFAA0EB0801494516D8D5F8900076
:101180008007F5D41FB1A86D20F08050A865A06A33
:10119000F0B302280AD00C2E7ED0286820F0807090
:1011A0002860FFF783FA0446B0E0ACE0E868E26A42
:1011B00000F00301914229D1216B00F07002090176
:1011C0001039914222D1626B00F4FE41B1EB022F43
:1011D0001CD1A26B00F40031072A01D0012200E0EB
:1011E0000022914212D1A18F00F4C00249084905A2
:1011F000A1F50011914209D194F8401000F0C060AF
:1012000049084906A1F1007181425ED00C2E0BE025
:1012100072E0000000100240404C00080C0000206A
:10122000040000200070004079D02868400176D486
:101230002868C00073D4286820F080702860FFF709
:1012400035FA064605E000BFFFF730FA801B02289A
:1012500059D828688001F7D4D4E90B016FF00F0248
:1012600002EB01110843A18F5204490802EB4151DE
:10127000626B41EA0221084394F840104FF07E422D
:10128000490802EB41610843A16B090940EA41406A
:10129000E968244A114000E041E00843E86028681A
:1012A00040F080702860E86840F08070E860FFF7E8
:1012B000FDF9044605E000BFFFF7F8F9001B02281E
:1012C00021D828688001F7D527E02868800124D438
:1012D000286840F080702860E86840F08070E8601E
:1012E000FFF7E4F9044604E0FFF7E0F9001B0228E9
:1012F00009D828688001F7D50FE000BFFFF7D6F9BD
:10130000001B022802D90320BDE8F8832868800169
:10131000F4D4E86804490840E8600020F4E70120BC
:10132000F2E700008C809DF9FCFFEEFE10B5401E38
:10133000B0F1807F01D3012010BD4FF0E024606147
:101340000F21601700F0F2FC0020A061072020614F
:10135000002010BD10B5040002D0A06F10B107E04E
:10136000012010BD002084F87400204600F026F80B
:101370002420A0672068016821F001010160204657
:1013800000F04CFB0128ECD0606A10B1204600F060
:10139000B3FA2068416821F4904141602068816877
:1013A00021F02A0181602068016841F0010101609B
:1013B0002046BDE8104000F003BB000010B5A8B007
:1013C0000446142122A8FEF7E4FF88216846FEF7B0
:1013D000E0FF18492068884229D1012000240090AC
:1013E0000E946846FFF726FA08B1FFF741F8124855
:1013F000016E41F480410166016E01F48041279144
:10140000C16C41F00101C164C06C22A900F001006F
:1014100027904FF4C06022900220CDE923040320DE
:101420002590072026904FF09040FFF723F828B032
:1014300010BD000000380140001002402DE9F843C3
:101440000446806F1F4616460D4620284FD1CDB169
:10145000C6B194F87400012849D0012084F87400C2
:101460004FF00008C4F880802120A067FFF71EF924
:10147000A4F850608146A4F85260A068B0F5805F7F
:1014800003D004E00120BDE8F883206928B12E468E
:101490005FF0000584F8748010E00026FAE78021F0
:1014A000204600F0DFFBB8B9C6B116F8010B216881
:1014B0000885B4F85200401EA4F85200B4F8520057
:1014C0004B464FF0000200970028E8D14FF0400152
:1014D000204600F0C7FB30B10320D4E735F8020BFB
:1014E000C0F30800E3E72020A0670020CBE702203C
:1014F000C9E7000010B586B014216846FEF749FF21
:101500001948C16C41F00401C164C16C01F00401CF
:101510000591C16C41F08001C164C16C01F0800192
:101520000591C16C41F01001C164C16C01F0100162
:101530000591C16C41F00101C164C06C0B4C00F01D
:1015400001000590002280212046FFF7AAF88020A4
:10155000009001200021CDE9010103916946204658
:10156000FEF788FF06B010BD0010024000100048D2
:101570000D4810B50B4901604FF4E1314160002185
:1015800081600C22C160C0E904128161C161016205
:101590004162FFF7DFFE002803D0BDE81040FEF7F0
:1015A00067BF10BD003801404C010020FEE7FEE798
:1015B0002DE9F041444C05468846E0680026810745
:1015C00028680DD0E16801F00301814216D1A8B16D
:1015D000E0686968C0F30210401C88420ED120E028
:1015E000012804D0022805D0032807D108E021688B
:1015F000890701E021684905002907DB01265FE032
:101600002168890302D421684903F5E7E1686A6823
:101610006FF00F0321F0730103EB0212114301433A
:10162000E160206820F080602060FFF73FF8074607
:1016300005E000BFFFF73AF8C01B022837D8206842
:101640000001F7D4B8F1000F18D0B8F1010F1ED087
:10165000287D4FF07E41400801EB4060A96840EAD8
:1016600001202169194A114008432061206840F097
:1016700080602060FFF71AF807461AE0A868E9685A
:101680000002090940EA41402169114AEBE7288A32
:101690001049400801EB4050A96840EA0120216947
:1016A0000D4AE0E7FFF702F8C01B022801D9032624
:1016B00006E020680001F5D52069A969084320618A
:1016C0003046BDE8F081000000100240FF80FFF9C5
:1016D000FF80FDFF0000E0FFFF809FFF2DE9F0414C
:1016E0003D4C06468846E0680025810730680DD0ED
:1016F000E16801F00301814216D1A8B1E068716888
:10170000C0F30210401C88420ED120E0012804D012
:10171000022805D0032807D108E02168890701E0E5
:1017200021684905002907DB012551E0216889036B
:1017300002D421684903F5E7E16872686FF00F038E
:1017400021F0730103EB021211430143E1602068B1
:1017500020F080502060FEF7A9FF074605E000BF9B
:10176000FEF7A4FFC01B022829D820688000F7D408
:10177000B8F1000F15D0307C4FF07E41400801EBEE
:101780004060B16840EA01206169144A1140084391
:101790006061206840F080502060FEF787FF0746B8
:1017A0000FE0B068F1680002090940EA4140616950
:1017B0000B4AEBE7FEF77AFFC01B022801D903258D
:1017C00006E020688000F5D56069716908436061B2
:1017D0002846BDE8F081000000100240FF80FFF9BC
:1017E000FF80FDFFF8B51C4D06460024A86DC00023
:1017F00002D5FFF717F80DE0A86D40F08050A865FE
:10180000A86D00F080500090FFF70CF8A96D21F052
:101810008051A965B0F5007F04D0802E07D94FF024
:1018200003040AE0802E08D9A02E01D804E001D1DB
:10183000022402E0702E00D101240848016821F042
:10184000070121430160006800F00700A04201D0B9
:101850000120F8BD0020F8BD001002400020024029
:10186000704710B501F0C4F9FEF726FF02F0BAFD8B
:10187000BDE8104001F0D6B910B596B044216846D5
:10188000FEF787FD142111A8FEF783FD4FF40070C9
:10189000FEF794FF08B1FEF7EBFD01210804CDE946
:1018A0000010022003240A90CDE90B4114210D9170
:1018B0000721CDE90E1010906846FFF7ABFA08B18A
:1018C000FEF7D6FD0F20CDE91104002013901490EF
:1018D0001590042111A8FFF785F9002801D0FEF723
:1018E000C7FD16B010BD00000248016841F4700148
:1018F0000160704788ED00E090F82410C90706D019
:1019000001684A68836A22F400321A434A6090F8F8
:101910002410890706D501684A68C36A22F4803218
:101920001A434A6090F82410490706D501684A68AE
:10193000036B22F480221A434A6090F824100907AE
:1019400006D501684A68436B22F400421A434A6094
:1019500090F82410C90606D501688A68836B22F4C2
:1019600080521A438A6090F82410890606D50168CF
:101970008A68C36B22F400521A438A6090F82410DC
:10198000490611D501684A68036C22F480121A4393
:101990004A60016CB1F5801F06D101684A68436C4A
:1019A00022F4C0021A434A6090F82410090606D5B2
:1019B00001684A68806C22F4002202434A60704742
:1019C000F8B500260446C0F88060FEF76FFE0546B5
:1019D000206800686FF07E47000708D52B4600227C
:1019E0004FF400112046009700F03CF960B92068E0
:1019F000006840070AD52B4600224FF4800120469C
:101A0000009700F02FF908B10320F8BD2020A0674F
:101A1000E067266684F874600020F8BD2DE9F04187
:101A20000446016880682269E36910436269002501
:101A30001A431043814F0A68814B1A4002430A60DF
:101A400020684168E26821F44051114341602168F7
:101A5000A069B94201D0226A10438A6822F4306238
:101A600002438A607749226877488A420DD1D0F8CC
:101A7000880010F0030006D0012866D0022854D058
:101A8000032851D163E001204FE070498A420BD115
:101A9000D0F8880010F00C0047D0042845D0082862
:101AA00051D00C2840D152E069498A420BD1D0F87C
:101AB000880010F0300038D0102846D0202842D0BE
:101AC000302831D143E063498A420BD1D0F88800F5
:101AD00010F0C00029D0402837D0802833D0C0284B
:101AE00022D134E05C498A420ED1D0F8880010F44B
:101AF00040701AD0B0F5807F27D0B0F5007F22D09B
:101B0000B0F5407F10D122E0BA420DD1D0F8880064
:101B100010F4406009D0B0F5806F16D0B0F5006FBA
:101B200011D0B0F5406F12D010204C4900264FF470
:101B30000043BA422ED160B102280DD004280DD046
:101B400008286FD10EE00220EFE70420EDE708201F
:101B5000EBE7FFF7E9F803E00B4603E0FFF708F9CE
:101B6000030060D0626802EB420098425AD8B3EB9F
:101B7000023F57D8190E1B02500818187141002354
:101B8000FEF7CCFB364AA0F5407191424AD8216855
:101B9000C86048E0E2694FF6EF779A4227D10928FA
:101BA00040D2DFE800F005080D3F213F3F3F0E0027
:101BB000FFF7BAF801E0FFF7C9F8030001D132E0FE
:101BC0000B466068590001EB5001B1FBF0F0A0F149
:101BD0001001B94226D84FF6F0710140C0F342001F
:101BE00001432068C1601EE0FFF7C2F8E5E709285D
:101BF00018D2DFE800F005080D171D1717170E00A3
:101C0000FFF792F801E0FFF7A1F8030001D10AE025
:101C10000B46606803EB5001B1FBF0F0A0F110013E
:101C2000B94208D9012566662846A666BDE8F08156
:101C3000FFF79EF8E9E780B2A9E7000000800040C6
:101C4000F369FFEF003801400010024000440040FB
:101C500000480040004C0040005000400024F400C8
:101C6000FFFC0F002DE9F0479A4617460E46044642
:101C70004FF000094FF02008089D4AE0681C48D04A
:101C8000FEF714FDA0EB0A00A8422AD84DB3206845
:101C9000016849073DD5C069C043000539D42168B2
:101CA0004FF400600862206850E8001F21F4D071F2
:101CB00040E80012002AF6D12068083050E8001FE2
:101CC00021F0010140E80012002AF5D1C4F8788023
:101CD000C4F87C80C4F8808084F874900320BDE848
:101CE000F087216851E8000F20F4D07041E800022D
:101CF000002AF6D12068083050E8001F21F00101C9
:101D000040E80012002AF5D1C4F87880C4F87C803D
:101D1000E2E72068C06936EA000004D00020B8423B
:101D2000ACD00020DBE70120F9E7FEE70907090E48
:101D3000002804DB00F1E02080F80014704700F078
:101D40000F0000F1E02080F8141D704702E008C881
:101D5000121F08C1002AFAD170477047002001E025
:101D600001C1121F002AFBD17047000010B502F01C
:101D70006DF9002806D0BDE810404FF0FF31024851
:101D800001F03BB910BD00006C04002010B528B173
:101D900040F2AE52064907A000F0E6FC02F056F908
:101DA000002804D0BDE81040064801F03FB810BD3F
:101DB0009A4F00086C6576656C203D3D2052545F5B
:101DC000454F4B006C0400202DE9F0410D460646BE
:101DD00014461946284602F06FFA00280AD105F188
:101DE0001407ECB1012C07D0AD22104910A000F06F
:101DF000BBFC0020BDE8F08134680DE095F835109B
:101E000094F82120A4F11400914204D239461430F0
:101E100000F04BFF02E02468B442EFD1B442E8D1B5
:101E20003946304600F041FFE3E70000564D000818
:101E3000300000002DE9F74F17460446FEF7CAF9B7
:101E4000814600F0D5FC40F27E4540B16E496FA05E
:101E500000F0F6FE2A466C4977A000F085FCFEF7FC
:101E6000B9F9804602F0F2F840B9674973A000F072
:101E7000E7FE2A46644970A000F076FCFEF7AAF956
:101E8000064600F0C3FE40B15F497AA000F0D8FEDC
:101E90002A465D4968A000F067FC3046FEF79EF9CF
:101EA0004046FEF79BF94846FEF798F92CB940F2F8
:101EB0008142554979A000F057FC204601F084F991
:101EC000032805D040F282424F49794800F04CFC8B
:101ED00002F0BCF80546FEF77DF980460020286335
:101EE000216AA9420CD1A07FFF2802D2401CA07712
:101EF00085E04046FEF772F96FF0020000F0DAB8B4
:101F00004FF0FF0991B1019840B304F1140095F826
:101F10003560627A3B4629468246FFF755FF070047
:101F200024D04046FEF75AF93846E7E7256284F8A0
:101F30001D900121A177217F2846FF2907D090F825
:101F4000352091425BD23A4600F0F2F957E004F1B5
:101F5000240105F13C0000F093FE50E06FF0010415
:101F600040462C63FEF73AF92046C7E76C64607F71
:101F7000B04209D96677206A90F835108E4203D2B4
:101F80000222314600F0D4F90198002809DD05F15C
:101F9000580001AA0021064602F08EFA304602F0EF
:101FA000D9FB4046FEF71AF901F096F9FEF712F94F
:101FB0008046286B18B3226A95F83530002192F8D4
:101FC0003500984200D101216069504503D090F856
:101FD0002100607701E084F81D9059B1104600F0AF
:101FE000F7F80146206A90F835208A4202D0022292
:101FF00000F09EF94046FEF7F1F8286B7EE7404678
:10200000FEF7ECF8002079E7074E000846756E638E
:1020100074696F6E5B25735D3A20736368656475E0
:102020006C6572206973206E6F7420617661696CD3
:1020300061626C650A0000003000000046756E6346
:1020400074696F6E5B25735D207368616C6C206EC4
:102050006F742062652075736564206265666F72B7
:1020600065207363686564756C6572207374617252
:10207000740A000046756E6374696F6E5B25735D4C
:10208000207368616C6C206E6F74206265207573BC
:10209000656420696E204953520A00006D757465AD
:1020A0007820213D2052545F4E554C4C00000000DA
:1020B000185200081EBCBDE8E08F000010B50446B1
:1020C00005488068FEF76CF80449401E51F830104E
:1020D0002060A1F1140010BD280100209804002008
:1020E00010B5040004D16322104911A000F03CFB9C
:1020F000A06A0178232906D1E169814203D9E26A05
:1021000002448A4208D221460EA000F099FDFEF753
:1021100061F80028FDD110BD20308142FBD8214656
:10212000BDE810400EA000F08BBD000080500008FC
:1021300074687265616420213D2052545F4E554C95
:102140004C0000007468726561643A2573207374F2
:1021500061636B206F766572666C6F770A000000B2
:102160007761726E696E673A2025732073746163BC
:102170006B20697320636C6F736520746F20656ECC
:1021800064206F6620737461636B206164647265A0
:1021900073732E0A0000000070B50C480468FEF747
:1021A00019F80546204601F04BF904F1580002F0F9
:1021B00011FA012084F83400204601F0ADFD2846D4
:1021C000FEF70CF8BDE8704001F086B82C01002045
:1021D000024690F8360052F83C1F06E0A1F12403B5
:1021E0005B7F834200D2184609689142F6D170475E
:1021F0002DE9FC411F460446DDE90831DDE90A65A9
:10220000143040600060C4E90827C4E90A310A4676
:102210002321184600F086FDD4E90A014218D4E9CA
:102220000801174B121F00F0C5FCE061202E04D3FB
:10223000C222144914A000F097FA84F8366084F89A
:10224000356004F13C0100202164C4E90E016064A2
:10225000A06484F84C0025656565206384F834002B
:10226000C4F88400C4F888000090234601900F4A07
:10227000194604F1580002F01DFA0020BDE8FC8167
:1022800099210008DB5000087072696F72697479D7
:10229000203C2052545F5448524541445F505249BB
:1022A0004F524954595F4D4158000000B122000877
:1022B00070B5040004D18722154916A000F054FA25
:1022C00094F83400400704D488221149164800F0DD
:1022D0004BFA204600F078FF012804D089220C49EF
:1022E000124800F041FAFDF775FF05466FF0010056
:1022F000206304F1140000F0F1FC204601F052F8D4
:102300002846FDF76BFFBDE8704000F0E5BF000018
:10231000CB50000874687265616420213D205254DE
:102320005F4E554C4C0000005C540008A05400085F
:10233000F7B51646054601AA022101F051FC95F8B1
:102340003400400729D56C6C002C26D0204600F0C4
:102350003BFF032821D105F1140000F0ADFC294614
:1023600004F11400627A33460546FFF72DFD00287C
:1023700013D16069A84202D090F8211000E0FF213B
:102380006177206AFFF724FF0146206A90F8352024
:102390008A4202D03246FFF7CBFFFEBD10B5029C49
:1023A00024F001044472C0E907120021C0E9093198
:1023B00014304060006010BD70B50D460446FDF756
:1023C00009FF2268A24205D051692960FDF706FF86
:1023D000002070BDFDF702FF4FF0FF3070BD1430DC
:1023E00000F085BC08B56FF0004469460B48FFF764
:1023F000E3FF38B101F02AFE022101F05DFF00F099
:102400006BFF08E001F0E8FF0099081AA04202D231
:10241000009001F08DFC01F0F9FAE6E7440100209C
:10242000114E002456F8240000B18047641C042C8F
:10243000F8D300BF01F058FC0400F2D0D4F8847047
:1024400000F02EFF0546012802D1204600F086FE4E
:102450000FB12046B847002DECD1A06A00F050FA29
:10246000204600F035FEE5E75C0300204FF47A7467
:1024700003A000F0E5FB204601F05AFCF8E700005D
:10248000656E74657220746573742074687265611A
:10249000640A00001CB505211920CDE900014FF4A4
:1024A000007300220C490DA001F0FAFB10B101F0FD
:1024B000A7FE02E00AA000F0C3FB0F4C4FF47A75B0
:1024C00080212046FEF7E5F80CA000F0B9FB284675
:1024D00001F02EFCF4E700006D2400086C65640038
:1024E00063726561746520746872656164206572E9
:1024F000726F720A00000000001000487465737467
:102500000D0A000010B500F065F9BDE81040FFF7B6
:10251000C1BF000070B50546806A0C46A04204D9D0
:1025200082221C491CA000F01FF9E86AA04204D8CE
:102530008322184921A000F017F9A86A61680844AD
:102540000021844211D00278D2070ED1EA6A824279
:102550000BD02A6B824200D12C630160426862601A
:10256000AA6A4068A31A10448360A86AA26810444B
:10257000A0420ED00278D2070BD12A6BA24200D122
:102580002863216061684160A96A6268401A114449
:10259000886070BDBB4F00082872745F75696E74E7
:1025A000385F74202A296D656D203E3D206D2D3EDB
:1025B000686561705F707472000000002872745F5B
:1025C00075696E74385F74202A296D656D203C2012
:1025D0002872745F75696E74385F74202A296D2DB6
:1025E0003E686561705F656E640000002DE9F04F24
:1025F00089B09946DDE912A5149CAB46630602D565
:10260000DFF8088103E0DFF80481A8F11108E30690
:1026100001D524F00104E30701D0302300E020239A
:1026200000260893A3070BD5002A02DA2D26524272
:1026300006E0630701D52B2602E0230700D52026FC
:1026400000234FF0300EC2B14F46B2FBF7FC09FB3E
:102650001C2CB2FBF9F218F80CC00DF803C05B1C7F
:10266000002AF1D1AB4200DD1D46AAEB050214F0B1
:10267000110F4FF0200704D011E08DF800E0012386
:10268000F0E73EB1002A05DD521E03E0884200D289
:102690000770401CB2F1000CA2F10102F6DC26B179
:1026A000884200D20670401C521EE40605D508E0A0
:1026B000884201D2089C0470401C141EA2F1010241
:1026C000F6DC74462E466D1E9E420ADD884200D21C
:1026D0000470401CF6E7884201D2E55C0570401C9E
:1026E00000E06C461D1EA3F1010307DDBBF1000FE6
:1026F000F1D103E0884200D20770401C131EA2F102
:102700000102F7DC09B000F003B80000894F0008AF
:1027100030BCBDE8C08F00001CB514210A20CDE9F3
:1027200000014FF400630022074908A001F0B8FA45
:10273000040004D1D422074907A000F015F8204670
:10274000BDE81C4001F05CBD052500086D61696EA7
:1027500000000000884C000874696420213D20526C
:10276000545F4E554C4C000038B500238DF80030B6
:10277000094B5C6924B101B0A446BDE83040604714
:1027800013460A46014605A000F05AFA9DF80000DB
:102790000028FBD038BD0000300000202825732918
:1027A00020617373657274696F6E206661696C6510
:1027B000642061742066756E6374696F6E3A257368
:1027C0002C206C696E65206E756D6265723A2564A9
:1027D000200A000070B5044C044D02E020688047D8
:1027E000241DAC42FAD370BDEC540008F05400082C
:1027F0000148408880B27047280100202DE9F0414F
:102800001D4616460F46040005D140F26B121349CF
:1028100013A0FFF7A9FF204600F0D6FC092805D039
:102820004FF4B6720D4912A0FFF79EFFA07E58B17B
:10283000D4F834C0BCF1000F09D02B4632463946DB
:102840002046BDE8F04160474FF0FF3001E06FF0F7
:10285000050000F02DFE0020BDE8F081004D0008CD
:1028600064657620213D2052545F4E554C4C00004B
:1028700072745F6F626A6563745F6765745F7479B1
:10288000706528266465762D3E706172656E7429C8
:10289000203D3D2052545F4F626A6563745F436C14
:1028A0006173735F446576696365000010B5FDF779
:1028B00091FC044A5188491C5180BDE81040FDF745
:1028C0008DBC00002801002010B5FDF783FC0B4CE7
:1028D0006188491E09B2618000290ADC00216180FB
:1028E000FDF77CFC6068002807D0BDE8104000F0D0
:1028F000F3BCBDE81040FDF771BC10BD28010020FD
:1029000070B504000AD0FFF731FA0546204600F002
:102910003BFF2846BDE87040FFF738BA70BD0000A5
:1029200010B5FDF7D1FEFEF7A7FFFEF7E3FDFEF7BA
:102930001FFEBDE810400249024801F0C9B800007E
:1029400000800120280C0020F8B5040041F28835F1
:1029500004D120220D490EA0FFF706FF0D26207896
:10296000002811D00A2807D18DF800602B460122DB
:1029700069460B48FEF762FD2146641C2B46012286
:102980000748FEF75BFDEAE7F8BD0000284C0008A9
:1029900073747220213D2052545F4E554C4C000000
:1029A0004C01002070B52F490546283009682C1DC0
:1029B00011B18847002853D02BA0216C00F040F9BA
:1029C0002DA0616A00F03CF92FA0A16A00F038F94F
:1029D00031A0E16A00F034F933A0216B00F030F946
:1029E00035A0616800F02CF937A0A16800F028F943
:1029F00039A0E16800F024F93BA0216900F020F93A
:102A00003DA0616900F01CF93FA0A16900F018F930
:102A100041A0E16900F014F943A0216A00F010F927
:102A200045A0616B00F00CF947A0A16B00F008F91C
:102A300049A0E16B00F004F92878400706D501F0C1
:102A400005FB014648A000F0FBF802E04EA000F0B4
:102A5000F7F82878C00602D452A000F0F1F8FEE79B
:102A600070BD0000100000207073723A203078258D
:102A70003038780A000000007230303A2030782573
:102A80003038780A000000007230313A2030782562
:102A90003038780A000000007230323A2030782551
:102AA0003038780A000000007230333A2030782540
:102AB0003038780A000000007230343A203078252F
:102AC0003038780A000000007230353A203078251E
:102AD0003038780A000000007230363A203078250D
:102AE0003038780A000000007230373A20307825FC
:102AF0003038780A000000007230383A20307825EB
:102B00003038780A000000007230393A20307825D9
:102B10003038780A000000007231303A20307825D1
:102B20003038780A000000007231313A20307825C0
:102B30003038780A000000007231323A20307825AF
:102B40003038780A00000000206C723A2030782576
:102B50003038780A000000002070633A2030782571
:102B60003038780A00000000686172642066617580
:102B70006C74206F6E207468726561643A202573EE
:102B80000D0A0D0A0000000068617264206661751C
:102B90006C74206F6E2068616E646C65720D0A0D36
:102BA0000A00000046505520616374697665210D66
:102BB0000A00000070B50446121D22F00700002232
:102BC0000A4D443840F82250521C112AFAD341626F
:102BD00000218162C16200F13402016382E81A00BF
:102BE0004FF080730364016070BD0000EFBEADDE86
:102BF00010B5FDF7EFFA044A1178491C1170BDE8D1
:102C00001040FDF7EBBA00002C00002010B5FDF7D6
:102C1000E1FA03490C78FDF7E1FA204610BD000007
:102C20002C00002010B5FDF7D5FA044A1178491E92
:102C30001170BDE81040FDF7D1BA00002C00002053
:102C40000FB4FF2110B503AB0B48029A01F070FEE0
:102C50000446FF2800D9FF240848006840B12346F5
:102C6000054A0021FFF7CAFD204610BC5DF814FBA1
:102C70000148FFF769FEF7E76C03002030000020F1
:102C80000268516002680A6001604860704702682B
:102C9000516002680A6001604860704702685160D4
:102CA00002680A60016048607047426811604268CB
:102CB0004A60416008607047D0E900124A60D0E97C
:102CC00000121160406000607047D0E900124A6055
:102CD000D0E900121160406000607047D0E9001236
:102CE0004A60D0E900121160406000607047D0E98E
:102CF00000124A60D0E90012116040600060704725
:102D000070B50546FFF732F80446054829460069C4
:102D100000F040FC05462046FFF738F8284670BD15
:102D20003000002038B500240346CDB20094042AB8
:102D300020D381071ED119466B461D55641C042CF7
:102D4000FBD30AE0009B103A08C1009B08C1009B1E
:102D500041F8083B009B41F8043C102AF2D202E003
:102D6000009B121F08C1042AFAD20B4602E000BFE2
:102D700003F8015B521EFBD238BD70B504460D4608
:102D8000002601F11400FFF797FF216A95F835201E
:102D900091F83500904200D10126606904F11402D7
:102DA000904202D090F8210000E0FF206077002ED2
:102DB0000DD00846FFF70CFA0146206A90F835203E
:102DC0008A4204D0BDE870400222FFF7B1BA70BD5C
:102DD00070B50D46040005D140F25F320D490EA0DA
:102DE000FFF7C2FC2A460321204600F007FA04F14F
:102DF0001400A06160610020FF2120626177A0774C
:102E0000217704F12400A06260620120607200203A
:102E100070BD0000C94D00086D7574657820213DB6
:102E20002052545F4E554C4C000000002DE9F84FE5
:102E3000040005D140F272524E494FA0FFF794FCB6
:102E4000204600F0C1F9032805D040F273524949E9
:102E50004E48FFF789FC0027FDF7BCF9804601F0DA
:102E6000F5F84FF4AF6540B9424949A0FFF7E8FED5
:102E70002A46404954A0FFF777FCFDF7ABF9064618
:102E8000FFF7C4FE40B13B4950A0FFF7D9FE2A46E8
:102E900038494DA0FFF768FC3046FDF79FF94046E2
:102EA000FDF79CF901F0D2F80546FDF793F980464D
:102EB000206AA84208D04FF0FF3440462C63FDF74B
:102EC0008DF9204600F096B8A07F401E10F0FF005C
:102ED000A07703D04046FDF781F948E004F12400D3
:102EE0008246FFF7E9FE207FFF26FF2804D195F8F0
:102EF0003500617F88420CD18DF800602846FFF7CD
:102F000067F98DF800006A460221284600F068FE45
:102F10000127616904F114054FF00009A9421DD091
:102F2000A1F114070846FFF7C7FE01202762A0772A
:102F3000514607F13C00FFF7A3FE3846C7F844901E
:102F400001F048F86069A84203D090F8210060774A
:102F500000E066774046FDF741F906E0C4F82090AE
:102F600066774046FDF73AF90FB100F0B5F9002059
:102F7000A8E70000164E00086D7574657820213DA5
:102F80002052545F4E554C4C00000000185200086F
:102F900046756E6374696F6E5B25735D207368613F
:102FA0006C6C206E6F74206265207573656420629E
:102FB00065666F7265207363686564756C65722001
:102FC00073746172740A00003000000046756E630D
:102FD00074696F6E5B25735D207368616C6C206E25
:102FE0006F74206265207573656420696E20495393
:102FF000520A000018BCBDE8E08F0222FEF71ABF9B
:103000002DE9F0410F460646FDF7E4F80446FFF7C8
:10301000FDFD48B11C491DA0FFF712FE40F2D11280
:10302000194924A0FFF7A0FB2046FDF7D7F830464A
:1030300000F0B8F8050005D140F2D51212491EA0E3
:10304000FFF792FBE868FFF75BFE040019D0002150
:10305000EA68FFF767FE2672002060720822394690
:10306000204600F021FDFDF7B5F8064604F10C01FD
:10307000281DFFF70CFE3046FDF7B0F82046BDE8EE
:10308000F0810020FBE700002050000846756E63C9
:1030900074696F6E5B25735D207368616C6C206E64
:1030A0006F74206265207573656420696E204953D2
:1030B000520A000030000000696E666F726D617424
:1030C000696F6E20213D2052545F4E554C4C0000DC
:1030D00070B5040005D140F212220F490FA0FFF78E
:1030E00043FB207A000605D540F213220A4910A0BE
:1030F000FFF73AFB00202072FDF76CF8054604F15B
:103100000C00FFF7E2FD2846FDF768F82046BDE811
:103110007040FFF7F5BB0000335000086F626A652E
:10312000637420213D2052545F4E554C4C000000EA
:1031300021286F626A6563742D3E7479706520265C
:103140002052545F4F626A6563745F436C617373AE
:103150005F537461746963290000000070B5040056
:1031600005D140F2AD12094909A0FFF7FDFA002090
:103170002072FDF72FF8054604F10C00FFF7A5FDBE
:103180002846BDE87040FDF729B800000F50000840
:103190006F626A65637420213D2052545F4E554C26
:1031A0004C000000074A002102EB01131B78834208
:1031B00002D102EB01107047491C0B29F4DB0020FF
:1031C000704700007800002010B5040005D14FF4CE
:1031D0001272044904A0FFF7C7FA207A20F0800099
:1031E00010BD00005E5000086F626A6563742021A4
:1031F0003D2052545F4E554C4C0000002DE9F047E5
:103200000646924688460846FFF7CCFF040005D1E3
:103210004FF4B772174918A0FFF7A6FAFFF746FB5D
:1032200040F27D19271D65680AE000BFA5F10C007A
:10323000B04204D14A460F4915A0FFF795FA2D6810
:10324000BD42F3D1FFF740FB48F080003072082206
:103250005146304600F028FCFCF7BCFF054606F15D
:103260000C01201DFFF713FD2846BDE8F047FCF7D1
:10327000B5BF000000500008696E666F726D617422
:10328000696F6E20213D2052545F4E554C4C00001A
:103290006F626A20213D206F626A656374000000DE
:1032A00010B5040005D140F23522054905A0FFF70D
:1032B0005BFA207A000601D5012010BD002010BD68
:1032C000445000086F626A65637420213D205254A7
:1032D0005F4E554C4C000000F8B5FCF77BFF2F4DBE
:1032E00007466888E8BBA868D8B300266846FEF79A
:1032F000E5FE0446686890F8341001F00702032ADE
:103300000ED190F83520009B9A4202D303D10A07D0
:1033100001D4044600E0012621F0080180F83410B1
:1033200084422CD0009A29462A7005464C600EB182
:1033300000F038F8204600F083F894F8340020F0CC
:103340000700C01C84F834002046FEF7C9FE14486C
:10335000007850B123462A4604F11C0105F11C00F7
:1033600000E015E0FCF73DFF12E004F11C0105F15F
:103370001C00FCF736FF3846FCF730FFF8BD00F0C4
:103380005FF8686810F8341F21F00701C91C01704C
:103390003846BDE8F840FCF721BF000028010020B6
:1033A0002C00002070B5050005D140F20E321C49FA
:1033B0001CA0FFF7D9F9FCF70DFF1F49024648682A
:1033C000854206D115F8340F20F00700C01C287084
:1033D00020E095F8340005F1140420F00700801C6B
:1033E00085F834000307154895F8353000EBC30025
:1033F00006D543681C60436863604460206005E054
:1034000003685C600368236004606060A86B8B687D
:1034100018438860BDE870401046FCF7DFBE00002E
:103420009750000874687265616420213D205254F1
:103430005F4E554C4C0000002801002098040020ED
:1034400010B5040005D14FF45E72114911A0FFF7C9
:103450008BF9FCF7BFFE04F11401D1E9002353609E
:10346000D1E900231A60A161616194F835200E4909
:1034700051F8323001EBC2018B4204D10B49A36BEE
:103480008A689A438A60BDE81040FCF7A7BE000036
:10349000B150000874687265616420213D20525467
:1034A0005F4E554C4C00000098040020280100207D
:1034B00070B50446FFF7AAFB044D20B900F0C6FD25
:1034C00008B1046370BD6C6070BD00003000002066
:1034D0001CB50AA0FFF7B4FB0BA0FFF7B1FB13A1CB
:1034E00015A0CDE9000100231A46052115A0FFF71C
:1034F000A7FB1DA0FFF7A4FB1CBD00000A205C2059
:103500007C202F0A000000002D205254202D202066
:10351000202020546872656164204F706572617468
:10352000696E672053797374656D0A0030323A35DD
:10353000343A3232000000004665622031312032D8
:1035400030323300202F207C205C202020202025BA
:10355000642E25642E2564206275696C64202573B1
:103560002025730A000000002032303036202D2044
:103570003230323220436F7079726967687420622A
:10358000792052542D546872656164207465616DB0
:103590000A0000002DE9F0410D0004467ED02CB950
:1035A0004FF48F724B494CA0FFF7DEF82046FFF72F
:1035B0000BFE0C2805D040F21F1246494AA0FFF727
:1035C000D3F82046FFF76CFE28B94FF490724149BA
:1035D00054A0FFF7C9F8ED1C25F003060C2E00D20D
:1035E0000C26616BB14273D3A26A206B801A891BCF
:1035F0006CE015182B78DB0766D16B681B1A0C3B47
:10360000B34261D3696806F118070B1A0C3BBB4241
:103610002BD381190C310A4424F0010313606B6829
:10362000C2E9013069605068626B0C32904202D08E
:10363000A26A10448160216A06F10C0008442062ED
:10364000616A814200D2606244F001002860206B10
:10365000A8421AD1E16A0278D2070BD0884209D079
:10366000A26A406810442063F5E7A81A081A216A84
:103670000844E4E7884208D00078C00705D040F24B
:10368000851214493148FFF76FF8A819E16A0C3028
:10369000884207D940F287120E4900E018E02C4812
:1036A000FFF762F8A8070BD04FF4C4720949294804
:1036B000FFF75AF840F28912064927A0FFF754F89D
:1036C00005F10C00BDE8F081001D1058814290D238
:1036D0000020F7E7D54F00086D20213D2052545FB0
:1036E0004E554C4C0000000072745F6F626A656357
:1036F000745F6765745F7479706528266D2D3E7000
:103700006172656E7429203D3D2052545F4F626A9C
:103710006563745F436C6173735F4D656D6F727940
:103720000000000072745F6F626A6563745F6973A2
:103730005F73797374656D6F626A65637428266D53
:103740002D3E706172656E7429000000B45200084D
:10375000C45300080453000828282872745F756257
:103760006173655F74296D656D2920262028525488
:103770005F414C49474E5F53495A45202D2031291E
:1037800029203D3D2030000070B506005ED0B00716
:1037900005D040F20A222E492EA0FEF7E5FFA6F141
:1037A0000C05286830F0010405D14FF40472284953
:1037B00034A0FEF7D9FF2878C00705D140F21122C6
:1037C000234936A0FEF7D0FF2046FFF7FDFC0C286A
:1037D00005D040F212221E493448FEF7C5FF2046AC
:1037E000FFF75EFD28B940F21322194930A0FEF719
:1037F000BBFFA06AB04202D8E06AB04205D84FF4DD
:10380000057213493848FEF7AFFFA06A696840584F
:1038100020F00100A04205D040F216220C4933A04E
:10382000FEF7A2FF24F001002860206BA84200D917
:103830002563A16A6868691A401A216A081A206219
:1038400029462046BDE87040FEF764BE70BD00000A
:10385000F34F000828282872745F75626173655FF2
:103860007429726D656D292026202852545F414CC1
:1038700049474E5F53495A45202D20312929203D83
:103880003D203000736D616C6C5F6D656D20213D76
:103890002052545F4E554C4C000000004D454D5F8A
:1038A000495355534544286D656D2900145400084B
:1038B00072745F6F626A6563745F69735F73797353
:1038C00074656D6F626A6563742826736D616C6CD4
:1038D0005F6D656D2D3E706172656E742E706172E4
:1038E000656E742900000000505300084D454D5F7F
:1038F000504F4F4C2826736D616C6C5F6D656D2D5C
:103900003E686561705F7074725B6D656D2D3E6EB3
:103910006578745D29203D3D20736D616C6C5F6D31
:10392000656D00002DE9F04106461346C81C20F0E5
:10393000030404F13802D01C20F003050B4423F0EB
:103940000300182830D9A0F1180797422CD3471B41
:10395000382200212046183FFFF7E4F932460C21B7
:103960002046FFF74BFC04F1140112A081E8A100EE
:103970006763A5622C60606B0C3068600020A860F3
:10398000A06A6968084444F00101E0620160606B6C
:10399000E16A0C304860606BE16A0C308860A06AB4
:1039A00020632046BDE8F0811A4604A0FFF748F9DD
:1039B0000020F7E7736D616C6C0000006D656D2091
:1039C000696E69742C206572726F72206265676916
:1039D0006E206164647265737320307825782C20C2
:1039E000616E6420656E6420616464726573732027
:1039F000307825780A0000000FB410B505AB049AA2
:103A000000F096FF10BC5DF814FB00002DE9FC41AE
:103A1000CDF804D0CDF800D0FCF7DCFB0646214DF4
:103A200038E0143C00F0D8FCA16A401A6FF0004165
:103A3000884232D22046FEF7D2FC607A810702D457
:103A400020F00100607204F1140188466846FFF717
:103A500025F9144F0020103F38703046FCF7BEFBAC
:103A6000D4E907108847FCF7B5FB064601203870FB
:103A70000098694688420DD04046FFF738F9607AD1
:103A8000810707D5C10705D020F0010060722046EC
:103A900000F060FE2C68AC42C3D13046FCF79EFBC0
:103AA000BDE8FC814401002010B5002A07D0034680
:103AB00011F8014B03F8014B2CB1521EF8D110BD87
:103AC00003F8011B00E00021521EF9D110BD0000D7
:103AD00070B50446C01C20F0030521F00306AE4279
:103AE00005D840F20462094909A0FEF73DFE721BA9
:103AF00021460DA0FFF716FF0D4901220861BDE820
:103B000070400CA10D48FFF763B90000A74F0008F3
:103B1000656E645F616C69676E203E2062656769EF
:103B20006E5F616C69676E0068656170000000001F
:103B30003000002068656170000000006C04002007
:103B400010B5074B0022074C5A80104604EBC00109
:103B5000401C496009602028F8DB9A6010BD000015
:103B6000280100209804002038B56846FEF7A6FA20
:103B70000446064844602046FFF762FC032084F8B0
:103B8000340004F11C00FCF772FB38BD2801002052
:103B900001484060006070473C0100201FB50B48A1
:103BA00004220A23406000600948D1018DE80F001B
:103BB0000023084A08A18C3800F0C6F904B0044874
:103BC000BDE810408C3800F01BBB00004401002011
:103BD00024060020E523000874696D65720000006A
:103BE0002DE9F04116460D46040005D140F24A3257
:103BF000244925A0FEF7B8FD2046FFF7E5FA012885
:103C000005D040F24B321F492448FEF7ADFD25B3E5
:103C1000012D27D0022D11D1FCF7DCFA074694F8CC
:103C20003400012500F0070002280AD0307884F81B
:103C300035008540A5633846FCF7D0FA0020BDE882
:103C4000F0812046FFF7FCFB307884F83500854092
:103C50002046A563FFF7A6FBEDE72046BDE8F0414F
:103C600000F0CEBA2046FFF71BFB0128204606D005
:103C700000F060F80446FFF72FFB2046DFE700F076
:103C8000CFF8F7E75151000874687265616420212C
:103C90003D2052545F4E554C4C000000A05400088B
:103CA0002DE9FF478946DDE90C76824601461D462F
:103CB00090460120FFF7A4F9041E0DD02846FFF717
:103CC0001FF860B103968DE8A10043464A4651466D
:103CD0002046FEF78DFA204604B0BDE8F087204666
:103CE000FFF7F6F90020F7E770B50A4800250468E9
:103CF00084420DD0A4F11405FCF76CFAD4E900124B
:103D00004A60D4E90012116064602460FCF766FA2E
:103D1000284670BD24000020044914300A68506011
:103D20000A680260086041607047000024000020BB
:103D300000F092B970B5040005D140F21322224977
:103D400022A0FEF711FD2046FFF73EFA012805D01C
:103D50004FF405721C492248FEF706FD2046FFF786
:103D60009FFA28B140F2152217491EA0FEF7FCFC6D
:103D700094F8340000F00701012915D0400702D063
:103D80002046FFF75DFBFCF725FA054604F15800D5
:103D900000F020FC012084F83400606C60B1FFF773
:103DA00013FA032802D007E0002070BD2146606CA2
:103DB000FEF7E3FF002060642046FFF7ADFF2846D2
:103DC000FCF70CFAF0E700001A51000874687265FD
:103DD000616420213D2052545F4E554C4C00000040
:103DE000A054000872745F6F626A6563745F6973E0
:103DF0005F73797374656D6F626A65637428287286
:103E0000745F6F626A6563745F7429746872656158
:103E10006429203D3D2052545F46414C53450000EB
:103E200070B5040005D14FF4D172224922A0FEF7EB
:103E30009BFC2046FFF7C8F9012805D040F2A312E9
:103E40001C492248FEF790FC2046FFF729FA28B9C2
:103E50004FF4D27217491EA0FEF786FC94F8340086
:103E600000F00701012915D0400702D02046FFF7D6
:103E7000E7FAFCF7AFF9054604F1580000F0AAFB99
:103E8000012084F83400606C60B1FFF79DF90328CD
:103E900002D007E0002070BD2146606CFEF76DFF88
:103EA000002060642046FFF737FF2846FCF796F9AC
:103EB000F0E7000009510008746872656164202110
:103EC0003D2052545F4E554C4C000000A054000859
:103ED00072745F6F626A6563745F69735F7379732D
:103EE00074656D6F626A656374282872745F6F62AF
:103EF0006A6563745F74297468726561642900007F
:103F000010B586B000230CA2082104A8FFF774FDA9
:103F10000B4820231F22D9008DE80F00A0F18C044C
:103F200020460023074A04A900F00EF8204600F0BE
:103F300067F906B010BD00007469646C6525640003
:103F40005C020020212400082DE9FF5F9A46DDE98C
:103F50000E48DDE9107693468946050005D14FF4F9
:103F6000A2720E490EA0FEF7FFFB2CB940F24512DB
:103F70000A4910A0FEF7F8FB4A4601212846FFF740
:103F80003DF9CDE90048CDE9027653465A46494607
:103F90002846FEF72DF904B000F018B8E8500008E4
:103FA00074687265616420213D2052545F4E554C07
:103FB0004C000000737461636B5F737461727420F2
:103FC000213D2052545F4E554C4C000030BCBDE8A2
:103FD000C09F000070B5040005D140F2164214499C
:103FE00014A0FEF7C1FB2046FFF7EEF8012805D02C
:103FF00040F217420E491448FEF7B6FB94F834001D
:10400000400702D44FF0FF3070BDFCF7E3F80546DF
:1040100004F11400FEF762FE04F1580000F032FCD7
:104020002846FCF7DBF82046FFF7BCF9002070BDFE
:104030009B51000874687265616420213D205254D0
:104040005F4E554C4C000000A05400080148006829
:10405000704700002C0100202DE9F143009818B1B1
:104060003B4D2C6824B109E06FF00900BDE8F883EE
:104070004FF41B72374938A0FEF776FB2046FFF756
:10408000A3F8012805D040F26D2232493748FEF7E7
:104090006BFBFCF79FF88046FEF7AAFB4FF41C77FA
:1040A00040B12C4932A0FEF7CBFD3A4629493BA04E
:1040B000FEF75AFBFCF78EF80646286840B92549FA
:1040C00037A0FEF7BDFD3A46224934A0FEF74CFB6F
:1040D000FCF780F80546FEF799FD40B11D493EA06A
:1040E000FEF7AEFD3A461B492CA0FEF73DFB2846E5
:1040F000FCF774F83046FCF771F84046FCF76EF8B0
:10410000FCF768F80026804631462046266300F01A
:10411000D3F8050004D04046FCF760F82846A5E730
:1041200004F158006A460021074600F0C5F93846F8
:1041300000F010FB4046FCF751F86FF008002063D8
:10414000FFF7CAF8206B801CE8D12663E6E7000081
:104150002C0100202B5100087468726561642021D5
:104160003D2052545F4E554C4C000000A0540008B6
:1041700046756E6374696F6E5B25735D3A20736379
:10418000686564756C6572206973206E6F74206158
:104190007661696C61626C650A00000030000000A5
:1041A00046756E6374696F6E5B25735D207368611D
:1041B0006C6C206E6F74206265207573656420627C
:1041C00065666F7265207363686564756C657220DF
:1041D00073746172740A000046756E6374696F6E61
:1041E0005B25735D207368616C6C206E6F74206258
:1041F00065207573656420696E204953520A00007A
:1042000010B5040005D140F27712154915A0FEF74C
:10421000ABFA94F83400400705D04FF4BC72104953
:1042200015A0FEF7A1FA2046FEF7CEFF012805D023
:1042300040F279120A491E48FEF796FA94F83510B2
:1042400001208840A063042084F834002046FFF752
:10425000C1FE1848006808B1FFF73EF8002010BD05
:10426000F750000874687265616420213D20525443
:104270005F4E554C4C000000287468726561642DD7
:104280003E7374617420262052545F544852454155
:10429000445F535441545F4D41534B29203D3D20D1
:1042A00052545F5448524541445F494E49540000BE
:1042B000A05400082C0100202DE9F0410E46040016
:1042C00005D140F2D6322F492FA0FEF74DFA2046F5
:1042D000FEF77AFF012805D040F2D73229492F484E
:1042E000FEF742FA2E4F3868844205D04FF47672BA
:1042F00024492CA0FEF738FA94F8340000F00705A2
:10430000022D05D0032D03D04FF0FF30BDE8F08122
:10431000FBF760FF8046032D08D13868844205D042
:104320004FF47A7217491FA0FEF71EFA2046FFF7D6
:1043300087F8072534B9134940F2AD321C3920A063
:10434000FEF712FAD6B1012E1AD0022E06D00D4970
:1043500040F2BA321C391FA0FEF706FA94F8340076
:1043600020F00700284384F8340004F1580000F0DE
:1043700089FA4046FBF732FF0020C7E70425EDE746
:104380000625EBE77F51000874687265616420219F
:104390003D2052545F4E554C4C000000A054000884
:1043A0002C010020746872656164203D3D207274A8
:1043B0005F7468726561645F73656C6628290000CC
:1043C00074687265616420213D2052545F4E554CE3
:1043D0004C000000300000000148006870470000F9
:1043E0002000002010B5FBF7F5FE04460E480168DA
:1043F000491C0160FFF72AFE416D491E416506D048
:104400002046FBF7EBFEBDE8104000F00FB8016D51
:10441000416510F8341F41F0080101702046FBF798
:10442000DDFEFEF759FFEEE7200000202DE9FC41FC
:10443000CDF804D0CDF800D0FFF7CEFF0646FBF74D
:10444000C9FE07461B4D2DE060696FF00041301A30
:10445000143C884229D22046FDF7C1FF607A8107CB
:1044600002D420F00100607204F11401884668460D
:10447000FEF714FCD4E907108847FFF7ADFF0646A6
:104480000098694688420DD04046FEF730FC607ABD
:10449000810707D5C10705D020F0010060722046D2
:1044A00000F058F92C68AC42CED13846FBF796FEA6
:1044B000BDE8FC813C0100202DE9F04115460E4687
:1044C000040005D140F24122234924A0FEF74CF913
:1044D0002046FEF779FE0A2805D040F242221E4906
:1044E00023A0FEF741F9FBF775FE07460A2E2CD2F2
:1044F000DFE806F0070515191E242B26282A606A16
:104500001AE028686FF00041884205D34FF4137217
:10451000114926A0FEF728F92868606215E0607A44
:1045200020F0020002E0607A40F0020060720CE0CD
:10453000607AC00700D00120286006E0A06AFBE78F
:10454000E56102E0206AF7E725623846FBF746FEA0
:104550000020BDE8F08100000752000874696D6515
:104560007220213D2052545F4E554C4C00000000FB
:1045700072745F6F626A6563745F6765745F747994
:104580007065282674696D65722D3E706172656E66
:104590007429203D3D2052545F4F626A6563745F09
:1045A000436C6173735F54696D657200282A2872C9
:1045B000745F7469636B5F74202A296172672920B4
:1045C0003C2052545F5449434B5F4D4158202F20AB
:1045D0003200000070B5040005D140F227121549E1
:1045E00015A0FEF7C1F82046FEF7EEFD0A2805D01B
:1045F0004FF494720F4915A0FEF7B6F82046FEF767
:104600004FFE28B940F229120A491FA0FEF7ACF864
:10461000FBF7E0FD05462046FDF7E1FE607A20F05D
:10462000010060722846FBF7D9FD2046FEF796FD93
:10463000002070BDBA51000874696D657220213D7B
:104640002052545F4E554C4C0000000072745F6F56
:10465000626A6563745F6765745F74797065282644
:1046600074696D65722D3E706172656E7429203DAE
:104670003D2052545F4F626A6563745F436C61739F
:10468000735F54696D65720072745F6F626A65630F
:10469000745F69735F73797374656D6F626A656364
:1046A00074282674696D65722D3E706172656E7432
:1046B000290000002DE9F8439946DDE90857144622
:1046C0008846060005D14FF48872114911A0FEF703
:1046D0004BF82CB940F211120D4913A0FEF744F823
:1046E0006FF00040854205D34FF48972084913A04A
:1046F000FEF73AF842460A213046FEF77FFD2B4688
:104700004A46214630460097FDF748FEBDE8F8834B
:10471000AC51000874696D657220213D2052545FD0
:104720004E554C4C0000000074696D656F75742027
:10473000213D2052545F4E554C4C000074696D650C
:10474000203C2052545F5449434B5F4D4158202F29
:10475000203200002DE9F843040005D14FF4D17256
:10476000314932A0FEF700F82046FEF72DFD0A2859
:1047700005D040F2A3122C4931A0FDF7F5FFFBF75D
:1047800029FD80462046FDF72AFE607A20F00100D0
:104790006072FFF721FE616A4318A362607A4007E6
:1047A00001D5364A01E0354A083A0020009202EB72
:1047B000C002694657686FF000465DF820200AE0A5
:1047C0001268A2EBC0056D699D4202D0ED1AB54298
:1047D00003D341F82020BA42F2D1284D04F114014C
:1047E000103D6868401C68600098FEF757FA607AD0
:1047F00040F001006072400710D5287801280DD1E3
:104800001F4890F83400400708D51D48FFF7E2FB29
:104810004046FBF7E3FCFEF75FFD02E04046FBF796
:10482000DDFC0020BDE8F883EA51000874696D657D
:104830007220213D2052545F4E554C4C0000000028
:1048400072745F6F626A6563745F6765745F7479C1
:104850007065282674696D65722D3E706172656E93
:104860007429203D3D2052545F4F626A6563745F36
:10487000436C6173735F54696D657200440100207D
:104880009805002070B50446FBF7A4FC05462CB93A
:1048900040F21D22114912A0FDF766FF2046FEF7E7
:1048A00093FC0A2805D040F21E220C4911A0FDF706
:1048B0005BFF607AC0070BD02046FDF790FD607A61
:1048C00020F0010060722846FBF788FC002070BDD4
:1048D0002846FBF783FC4FF0FF3070BDF95100080C
:1048E00074696D657220213D2052545F4E554C4CC9
:1048F0000000000072745F6F626A6563745F6765D1
:10490000745F74797065282674696D65722D3E70C8
:104910006172656E7429203D3D2052545F4F626A7A
:104920006563745F436C6173735F54696D65720096
:104930002DE9FF4F8946044600EB090783B0804606
:104940004FF0FF3A4FF0200BA74202D25746C8F172
:10495000FF3912E1252803D0BC4200D2207084E048
:1049600000260599491C059108782D2811D02B287F
:1049700012D0202813D0232814D0302815D00A783C
:104980005546303A0A2A13D205A800F039F90546EF
:104990001AE046F01006E4E746F00406E1E746F0C8
:1049A0000806DEE746F02006DBE746F00106D8E71A
:1049B0002A2809D10698491C059120C80690002D87
:1049C00002DA6D4246F010060598D44601782E2989
:1049D00018D1401C05900178A1F130020A2A04D2B6
:1049E00005A800F00DF9844607E02A2908D1401CEB
:1049F0000590069850F804CB0690BCF1000F01DA40
:104A00004FF0000C059A00201178682901D06C291C
:104A100002D1521C0846059211780A2369290CD04C
:104A20000CDC622975D004DC252973D0582911D1FA
:104A30008BE063291BD064290CD18AE0732932D022
:104A400004DC6F297FD0702904D165E0752972D00C
:104A500078297CD0BC4201D2252020700598641CA6
:104A60000178E9B3BC4200D22170641C82E0F006F8
:104A700008D458466D1E002D04DDBC4200D22070C3
:104A8000641CF7E70698BC4210F8041B069000D29D
:104A90002170584602E0BC4200D22070641C6D1E9A
:104AA000002DF8DC66E0069802C8069001B942A124
:104AB000002000E0401CA84202D00A5C002AF9D184
:104AC000BCF1000F02DD604500DD6046F2060BD44C
:104AD0005A462B466D1E834206DDBC4202D200E0E0
:104AE00057E02270641CF4E7002206E0BC4201D2C9
:104AF0000B782370491C521C641C8242F6DB5A4618
:104B000029466D1E814235DDBC4200D22270641CF4
:104B1000F6E716E011E016E0681C02D1082546F021
:104B20000106CDE9005C06980296102304C80690A1
:104B3000394620461BE00EE009E0BC4295D2252014
:104B40000CE7022307E0082305E046F040061023A7
:104B500001E046F002066C2801D068281CD00698B7
:104B600004C80690CDE9005C394620460296FDF760
:104B70003DFD04460598401C0590059800780028E6
:104B80007FF4E8AEB9F1000F11D0BC420DD2207015
:104B90000DE0401E0590EDE7069830F8041B0690E6
:104BA0008AB2B007DED512B2DCE707F8010C07B015
:104BB000A4EB080000F004B8284E554C4C29000026
:104BC00030BCBDE8C08F0020704700207047002037
:104BD00070470020704710B5FBF7FCFAFDF7A0FE08
:104BE000FEF776FCFEF7D4FFFEF7AAFFFDF794FD73
:104BF000FEF7D4FFFFF784F9FEF7B6FF002010BDE3
:104C000010B5014600206FF02F0307E0541C0C6024
:104C1000127800EB800003EB400010440A6814781F
:104C2000303C0A2CF2D310BD72745F68775F636FFB
:104C30006E736F6C655F6F75747075740000000043
:104C4000000000000000000001020304060708093C
:104C5000A0860100400D0300801A060000350C00FC
:104C600040420F0080841E0000093D0000127A00BF
:104C70000024F40000366E010048E801006CDC02FC
:104C8000000000000102030472745F6170706C69BF
:104C9000636174696F6E5F696E69740072745F64DA
:104CA00065766963655F756E726567697374657251
:104CB0000072745F6465766963655F6465737472BE
:104CC0006F790072745F6465766963655F696E69A8
:104CD000740072745F6465766963655F6F70656E9A
:104CE0000072745F6465766963655F636C6F73659A
:104CF0000072745F6465766963655F726561640004
:104D000072745F6465766963655F77726974650064
:104D100072745F6465766963655F636F6E74726FEA
:104D20006C0072745F6465766963655F7365745F58
:104D300072785F696E6469636174650072745F6440
:104D400065766963655F7365745F74785F636F6DC3
:104D5000706C657465005F6970635F6C6973745F24
:104D600073757370656E640072745F73656D5F69EF
:104D70006E69740072745F73656D5F6465746163FE
:104D8000680072745F73656D5F637265617465005E
:104D900072745F73656D5F64656C657465005F72E6
:104DA000745F73656D5F74616B650072745F7365CA
:104DB0006D5F72656C656173650072745F73656DBC
:104DC0005F636F6E74726F6C0072745F6D75746583
:104DD000785F696E69740072745F6D757465785F71
:104DE0006465746163680072745F6D757465785F83
:104DF0006372656174650072745F6D757465785F68
:104E000064656C657465005F72745F6D7574657858
:104E10005F74616B650072745F6D757465785F7245
:104E2000656C656173650072745F6D757465785F3C
:104E3000636F6E74726F6C0072745F6576656E740A
:104E40005F696E69740072745F6576656E745F6425
:104E500065746163680072745F6576656E745F6324
:104E600072656174650072745F6576656E745F6407
:104E7000656C6574650072745F6576656E745F73EA
:104E8000656E64005F72745F6576656E745F7265EF
:104E900063760072745F6576656E745F636F6E74BF
:104EA000726F6C0072745F6D625F696E697400721C
:104EB000745F6D625F6465746163680072745F6DD6
:104EC000625F6372656174650072745F6D625F64D6
:104ED000656C657465005F72745F6D625F73656EAB
:104EE000645F776169740072745F6D625F75726789
:104EF000656E74005F72745F6D625F7265637600E9
:104F000072745F6D625F636F6E74726F6C00727447
:104F10005F6D715F696E69740072745F6D715F645B
:104F200065746163680072745F6D715F637265615F
:104F300074650072745F6D715F64656C65746500A3
:104F40005F72745F6D715F73656E645F77616974C2
:104F50000072745F6D715F757267656E74005F7269
:104F6000745F6D715F726563760072745F6D715FFF
:104F7000636F6E74726F6C00303132333435363794
:104F800038396162636465660030313233343536F6
:104F9000373839414243444546005F686561705F78
:104FA000756E6C6F636B0072745F73797374656D8B
:104FB0005F686561705F696E697400706C75675FCA
:104FC000686F6C65730072745F736D656D5F6465A7
:104FD000746163680072745F736D656D5F616C6CA2
:104FE0006F630072745F736D656D5F7265616C6C89
:104FF0006F630072745F736D656D5F6672656500E7
:1050000072745F6F626A6563745F696E697400725F
:10501000745F6F626A6563745F646574616368007E
:1050200072745F6F626A6563745F616C6C6F6361F9
:1050300074650072745F6F626A6563745F64656C47
:105040006574650072745F6F626A6563745F69732B
:105050005F73797374656D6F626A656374007274EF
:105060005F6F626A6563745F6765745F74797065AA
:105070000072745F6F626A6563745F66696E640074
:105080005F7363686564756C65725F737461636B8D
:105090005F636865636B0072745F736368656475F2
:1050A0006C655F696E736572745F74687265616464
:1050B0000072745F7363686564756C655F72656DBB
:1050C0006F76655F746872656164005F74687265AD
:1050D00061645F74696D656F7574005F7468726593
:1050E00061645F696E69740072745F74687265618F
:1050F000645F696E69740072745F7468726561647C
:105100005F737461727475700072745F7468726535
:1051100061645F6465746163680072745F7468726F
:105120006561645F64656C6574650072745F746862
:10513000726561645F736C6565700072745F74683A
:10514000726561645F64656C61795F756E74696CCA
:105150000072745F7468726561645F636F6E74720D
:105160006F6C0072745F7468726561645F736574FC
:105170005F73757370656E645F73746174650072DC
:10518000745F7468726561645F73757370656E6473
:105190005F776974685F666C61670072745F7468DA
:1051A000726561645F726573756D650072745F74BA
:1051B000696D65725F696E69740072745F74696DA0
:1051C00065725F6465746163680072745F74696DB1
:1051D00065725F6372656174650072745F74696D96
:1051E00065725F64656C6574650072745F74696D87
:1051F00065725F73746172740072745F74696D6557
:10520000725F73746F700072745F74696D65725F42
:10521000636F6E74726F6C0072745F6F626A656345
:10522000745F6765745F7479706528266D75746541
:10523000782D3E706172656E742E706172656E7449
:1052400029203D3D2052545F4F626A6563745F437D
:105250006C6173735F4D7574657800004F4B00008F
:1052600045494E56414C000045525346554C4C0062
:10527000454E4F4D454D000045494F004552524F58
:1052800052000000454E4F535953000045494E54BB
:10529000525054004554494D4F55540045554E4BBE
:1052A0004E4F570045425553590000004552534553
:1052B000505459002828736D616C6C5F6D656D2DBD
:1052C0003E6C66726565203D3D20736D616C6C5F60
:1052D0006D656D2D3E686561705F656E6429207C2B
:1052E0007C2028214D454D5F495355534544287333
:1052F0006D616C6C5F6D656D2D3E6C6672656529C8
:10530000292900002872745F75626173655F7429D2
:10531000282872745F75696E74385F74202A296D4D
:10532000656D202B2053495A454F465F53545255C3
:1053300043545F4D454D2920252052545F414C492F
:10534000474E5F53495A45203D3D20300000000044
:105350002872745F75696E74385F74202A29726DC3
:10536000656D203E3D202872745F75696E74385FEC
:1053700074202A29736D616C6C5F6D656D2D3E68BC
:105380006561705F707472202626202872745F75C4
:10539000696E74385F74202A29726D656D203C2017
:1053A0002872745F75696E74385F74202A29736D72
:1053B000616C6C5F6D656D2D3E686561705F656EDB
:1053C000640000002872745F75626173655F742900
:1053D0006D656D202B2053495A454F465F535452FB
:1053E0005543545F4D454D202B2073697A65203C11
:1053F0003D202872745F75626173655F7429736DF7
:10540000616C6C5F6D656D2D3E686561705F656E8A
:105410006400000072745F6F626A6563745F676541
:10542000745F747970652826736D616C6C5F6D654F
:105430006D2D3E706172656E742E706172656E7452
:1054400029203D3D2052545F4F626A6563745F437B
:105450006C6173735F4D656D6F727900287468724B
:105460006561642D3E7374617420262052545F542C
:1054700048524541445F53555350454E445F4D415A
:10548000534B29203D3D2052545F544852454144DE
:105490005F53555350454E445F4D41534B00000000
:1054A00072745F6F626A6563745F6765745F747955
:1054B0007065282872745F6F626A6563745F74290F
:1054C00074687265616429203D3D2052545F4F62CB
:1054D0006A6563745F436C6173735F54687265617E
:1054E00064000000D34B0008CB4B0008C74B0008FA
:1054F000CF4B000814550008000000204C010000AC
:105500000C040008A85500084C010020DC0A00002B
:105510005C1D0008320182100315093D22242A2057
:1055200004011C135C521B087C041A94041A6804BE
:105530001AAC041A70041A84041AA4041A78041AFF
:105540008C041A60041A9C0429781A7C54290432A9
:105550008C32021908290C2A206932031A9C0C2962
:1055600004322C32041AAC0C2904292032051ABC4E
:105570000C2904323032061ACC0C2904323C320891
:105580001ADC0C29042A34DB311AEC0C29043240D1
:10559000320A1AFC0C290429602A0C0412012A2060
:0855A00004021F2829BC0114BC
:040000050800018965
:00000001FF
